:020000040800F2
:1000000008050020E1020008A9D5000849C600083B
:10001000A1D500080916000801F900080000000039
:1000200000000000000000000000000011DD0008DA
:10003000492200080000000071D7000871DD0008A7
:10004000FF020008FF020008FF020008FF0200088C
:10005000FF020008FF020008FF020008FF0200087C
:10006000FF020008FF020008FF020008A1170008B5
:10007000FF020008FF020008FF020008FF0200085C
:10008000FF020008FF020008FF020008FF0200084C
:10009000FF020008FF020008FF020008FF0200083C
:1000A000FF020008FF020008FF020008FF0200082C
:1000B000FF020008FF020008FF020008FF0200081C
:1000C000FF020008FF020008FF020008FF0200080C
:1000D000FF020008FF020008FF020008FF020008FC
:1000E00051220008FF02000800000000FF02000883
:1000F000FF020008FF020008FF020008FF020008DC
:10010000FF020008FF020008FF020008FF020008CB
:10011000FF020008FF020008FF020008FF020008BB
:10012000FF020008FF020008FF020008FF020008AB
:10013000FF020008FF020008FF020008FF0200089B
:1001400000000000000000000000000000000000AF
:10015000FF020008FF020008FF020008FF0200087B
:10016000FF020008FF020008FF020008FF0200086B
:10017000FF020008FF020008FF0200080000000064
:10018000FF020008FF020008FF020008FF0200084B
:10019000FF020008FF020008FF020008FF0200083B
:1001A000FF020008FF020008FF0200080000000034
:1001B000FF020008FF020008FF020008FF0200081B
:1001C000FF020008FF02000800000000000000001D
:1001D0000000000000000000FF0200080000000016
:1001E000000000000000000000000000000000000F
:1001F0000000000000000000FF020008FF020008ED
:10020000FF020008FF02000800000000FF020008D3
:10021000FF020008FF020008FF020008FF020008BA
:10022000FF02000800000000FF02000800000000BC
:10023000FF020008FF02000800000000FF020008A3
:10024000FF020008FF020008FF020008FF0200088A
:10025000FF020008FF020008FF020008FF0200087A
:10026000FF020008FF020008FF020008FF0200086A
:10027000FF020008FF020008FF0200080000000063
:10028000FF020008FF020008FF020008FF0200084A
:1002900000000000FF020008FF020008000000004C
:1002A00000000000FF020008FF020008FF02000833
:1002B000FF020008FF020008FF020008FF0200081A
:1002C000FF020008FF020008FF020008DFF80CD060
:1002D00000F04CFA0048004701060108080500201C
:1002E000074880470748804707480047FEE7FEE782
:1002F000FEE7FEE7FEE7FEE7FEE7FEE7FEE7FEE7D6
:100300007122000851DE0008CD0200082DE9F05FDF
:100310000546002092469B46884606468146402474
:100320001BE0284641464746224600F057F8534610
:100330005A46C01A914110D311461846224600F081
:100340003EF82D1A67EB01084F4622460120002196
:1003500000F035F817EB00094E41201EA4F101040E
:10036000DFDC484631462A464346BDE8F09FD2B21C
:1003700001E000F8012B491EFBD270470022F6E78E
:1003800010B513460A4604461946FFF7F0FF20460B
:1003900010BD30B50B46014600202022012409E0A3
:1003A00021FA02F59D4205D303FA02F5491B04FA2E
:1003B00002F52844151EA2F10102F1DC30BD202A0D
:1003C00004DB203A00FA02F1002070479140C2F1AC
:1003D000200320FA03F3194390407047202A04DBDE
:1003E000203A21FA02F00021704721FA02F3D040AE
:1003F000C2F1200291400843194670472DE9FE4F93
:10040000804681EA0300C00F0C46009021F00041B5
:1004100023F00045B8EB0200A94105D24046214631
:1004200090461C460B46024623F00040104347D03E
:10043000270DC7F30A00C3F30A510290401A019036
:1004400040286BDAC3F3130040F4801B00989246F7
:1004500020B10023D2EB030A63EB0B0B0198594642
:10046000C0F140025046FFF7AAFF06460D4650462F
:100470005946019A00F08CF910EB08006141002404
:1004800087EA115284EAE7731A4340D0009A62B3B4
:10049000019A012A4FEA075215DC001B61EB0201A9
:1004A0004FF0004202EA0752CDE90042001C41F53C
:1004B000801132462B4600F08CF903B0BDE8F08F76
:1004C00040462146F9E7001B61EB0201001C41F5A3
:1004D000801300185B412018A2F5001747EB0301B9
:1004E00040EAD570B6196D4111E06D084FEA360645
:1004F00045EAC0754FEA0752001B61EB0201001C80
:1005000041F5801149084FEA300000195141324647
:100510002B4603B0BDE8F04F00F04CB90098012223
:1005200040000023D0EB020263EBE0730098214609
:100530004FEAE074B8EB000061EB0401E9E783F0F7
:1005400000435BE781F0004158E72DE9FE4F81EA67
:10055000030404F0004421F0004100944FF0000B2C
:1005600023F0004350EA01045ED052EA03045BD05A
:10057000C3F30A54C1F30A552C44A4F2F334019492
:10058000A0FB0254C1F3130141F48011C3F3130320
:1005900043F4801301FB024400FB034E840A970AD4
:1005A00044EA815447EA8357A4FB076802958D0A01
:1005B00005FB07854FEA932C04FB0C542705029D8D
:1005C0004FEA065847EA1637B5EB08056EEB070CFD
:1005D000870E920E47EA811742EA8312A7FB0201B7
:1005E000B6EB0B0164EB00042B0D43EA0C335E18F1
:1005F00044EB1C50DA465146E7FB0201C5F31304F5
:100600004FEA0B3343EA14534FEA0432019C43EAA6
:100610000603A4F10C040294009CCDE900B400F0A0
:10062000D8F803B0BDE8F08F00200146F9E72DE9C6
:10063000F04D81EA030404F0004B21F0004514461C
:100640004FF0000A23F0004150EA050220D054EA9E
:1006500001021DD0C5F30A570246C5F31303C1F3C7
:100660001300C1F30A5640F4801543F48013A7EB3E
:100670000608101BD64608F2FD3873EB050002D3BE
:1006800008F1010801E092185B41B8F1000F03DAAC
:1006900000200146BDE8F08D00204FF48011064691
:1006A00084460EE0171B73EB050705D3121B63EBA3
:1006B000050306434CEA010C49084FEA3000921842
:1006C0005B4150EA0107EDD152EA030012D082EA01
:1006D000040083EA0501084305D0101BAB4106D294
:1006E0000122002306E000224FF0004302E06FF0F9
:1006F000010253101AEB06004CEB085110EB0A00F4
:1007000041EB0B01BDE8F04D00F054B8C1F30A52C3
:10071000C1F3130140F2FF3341F480119A4202DA2F
:1007200000200146704740F233439A42A2F233421E
:1007300002DC5242FFF752BEFFF741BE30B5041E45
:1007400071F1000404DB4FF00044404264EB01010E
:10075000141E73F1000405DB1C464FF000435242A7
:1007600063EB0403994208BF904230BD064C074D2D
:1007700006E0E06840F0010394E807009847103471
:10078000AC42F6D3FFF7A6FD18150108581501086D
:10079000202A06DBCB17203A41FA02F043EAE07345
:1007A00006E041FA02F3D040C2F120029140084332
:1007B0001946704710B5141E73F1000408DA401C86
:1007C00041F1000192185B411A4301D120F0010070
:1007D00010BD2DE9F04D92469B4611B1B1FA81F260
:1007E00002E0B0FA80F220329046FFF7E8FD0446BE
:1007F0000F4640EA0A0041EA0B0153465A460843B5
:1008000013D0114653EA010019D0C8F140025046F6
:10081000FFF7E4FD05460E46504659464246FFF7AF
:10082000CEFD084305D0012004E020463946BDE84E
:10083000F08D0020054346EAE0762C4337430A98C2
:100840006305E40AA0EB08000022FD0A44EA4754CD
:100850000A3002D500200146E9E701051019694177
:10086000DDE9084500196941BDE8F04DA2E7000047
:1008700080B58CB0002000F093F907A8022100F0A9
:100880001BFA079847F6FF71401A00EE100AB8EEFF
:10089000C00A9FED211A20EE010A9FED202A80EE6A
:1008A000020A40F21000C2F2004080ED000A90ED12
:1008B000000AD0ED020A04220690104605918DED43
:1008C000041A8DED032A02920FF0C2FE069880ED05
:1008D000010A0899059A891A00EE101AB8EEC00AA2
:1008E0009DED041A20EE010A9DED032A80EE020A16
:1008F00040F26801C2F2000181ED000A91ED000AA8
:10090000D1ED020A029801910FF0A2FE019880ED4C
:10091000010A0CB080BD00BFDB0F494000FEFF465E
:1009200080B586B001468DF817009DF81700024685
:100930000028049208D0FFE70498012816D0FFE7AA
:100940000498022823D035E00020C5F602004FF4B9
:100950000061002206F0F4F840F20040C5F6020003
:100960004FF48061012206F0EBF824E040F20040F1
:10097000C5F602004FF4806101220390029106F057
:10098000DFF800220398029906F0DAF813E000205D
:10099000C5F602004FF400610022019206F0D0F883
:1009A00040F20040C5F602004FF48061019A06F063
:1009B000C7F800E0FFE7012000F09EFA06B080BD16
:1009C00080B586B040F20040C5F6020080210022CA
:1009D00005900491039206F0B3F841F20000C5F6C9
:1009E0000200022102900191039A06F0A9F8012069
:1009F000009000F081FA05980499009A06F0A0F89A
:100A000002980199009A06F09BF8009800F074FA99
:100A100006B080BD0000000080B586B040F2004006
:100A2000C5F602008021012205900491039206F090
:100A300087F841F20000C5F6020002210290019100
:100A4000039A06F07DF8039800F056FA0020059905
:100A5000009008460499009A06F072F802980199ED
:100A6000009A06F06DF8039800F046FA06B080BDD3
:100A700080B588B041F20040C5F602000221012293
:100A800007900691059206F05BF840F60000C5F667
:100A90000200082104900391059A06F051F8079886
:100AA0000599059A06F04CF804200499029008462E
:100AB0000299059A06F044F80A2005F085FD002009
:100AC0000799019008460699019A06F039F80498AA
:100AD0000399019A06F034F8502005F075FD079847
:100AE0000599019A06F02CF804980299019A06F0EB
:100AF00027F8059805F068FD07980599059A06F00E
:100B00001FF804980299059A06F01AF808B080BDFB
:100B100080B58AB000F000FAFFF7AAFFFFF750FF98
:100B20000220099000F03CF80998FFF7F9FE40F226
:100B3000E410C2F200409121202208900791069211
:100B400000F0B2F988200121089A05901046059B13
:100B500004911946049A00F0A7F98A207F21089A87
:100B600003901046039B02911946029A00F09CF9EB
:100B700040F26C20C2F2004001900799069A00F002
:100B800093F901980599049A00F08EF90198039958
:100B9000029A00F089F90AB080BD00000000000050
:100BA00080B588B001468DF81F009DF81F00002811
:100BB00025D1FFE70020C5F602004FF400410022D6
:100BC000069205F0BDFF40F20040C5F602004FF46A
:100BD00080510590069A05F0B3FF4FF40071059817
:100BE000069A05F0ADFF41F20000C5F602001021A3
:100BF000069A05F0A5FF012000F07EF958E09DF867
:100C00001F00012828D1FFE70020C5F602004FF49D
:100C100000410022049205F093FF40F20040C5F627
:100C200002004FF480510390049A05F089FF4FF4BD
:100C300000710120039A02901046029A05F080FF8D
:100C400041F20000C5F602001021029A05F078FF7B
:100C5000029800F051F92AE09DF81F00022825D1E2
:100C6000FFE70020C5F602004FF400410122019287
:100C700005F066FF40F20040C5F602004FF48051D7
:100C80000090019A05F05CFF4FF400710098019A02
:100C900005F056FF41F20000C5F602001021019A4E
:100CA00005F04EFF019800F027F9FFE7FFE7FFE7A7
:100CB00008B080BD0000000080B586B00A468DF8FF
:100CC000171000210161C1608160416001609DF8E1
:100CD0001710049008460392FFF722FE00F0B0F8C8
:100CE000FFF79AFE40F2E410C2F2004002900CF0CE
:100CF000AFFF00020499086002980CF0A9FF049964
:100D00000A681044086040F26C20C2F20040019072
:100D10000CF09EFF00020499486001980CF098FFC7
:100D200004994A6810444860FFF74AFE06B080BD47
:100D300080B586B00A468DF8171000210161C160A8
:100D40008160416001609DF817100490084603928D
:100D5000FFF7E6FD00F074F8FFF75EFE40F2E410E6
:100D6000C2F2004002900CF073FF00020499886008
:100D700002980CF06DFF04998A681044886040F274
:100D80006C20C2F2004001900CF062FF0002049956
:100D9000C86001980CF05CFF0499CA681044C860F0
:100DA000FFF70EFE06B080BD80B586B00120FFF7CC
:100DB000F7FE01A80221FFF7BBFF039840F21001E4
:100DC000C2F200410882B1F9100000EE100AB8EE3C
:100DD000C00A9FED181A20EE010A81ED060A91ED76
:100DE000050A91ED062A9FED143A20EE030A9FEDC5
:100DF000134A02EE040A81ED050A049840F26801E4
:100E0000C2F200010882B1F9100000EE100AB8EE3B
:100E1000C00A20EE410A81ED060A91ED050A91ED26
:100E2000061A20EE030A01EE040A81ED050A06B057
:100E300080BD00BFB072A83EA4707D3F0AD7233C9E
:100E400080B586B041F20040C5F602000121059050
:100E50000491049A05F074FE40F60000C5F6020005
:100E6000042103900291049A05F06AFE002005997E
:100E7000019008460499019A05F062FE03980299D0
:100E8000019A05F05DFE0A2000F036F805980499F5
:100E9000049A05F055FE03980299049A05F050FE55
:100EA00006B080BD0000000080B584B013468C46BB
:100EB00003908DF80B108DF80A2002200193CDF8D5
:100EC00000C0FFF76DFEFFF7A7FD03989DF80B101C
:100ED0000CF00AFFFFF774FD032000F00DF8FFF798
:100EE0009BFD03989DF80A100CF0FEFEFFF768FDCD
:100EF00004B080BD0000000082B001900198009015
:100F0000FFE70098002804D0FFE700980138009020
:100F1000F7E702B07047000040F21000C2F2004054
:100F200000210160416047F2EE72C3F610728260E8
:100F300081818173C1734161816140F26800C2F2B5
:100F400000000160416042F2B002C3F605728260A7
:100F500081818173C173416181617047000000002C
:100F600082B0019001980090FFE70098002804D01B
:100F7000FFE7009801380090F7E702B070470000E3
:100F800080B582B041F20000C5F602004FF4804106
:100F90000122009205F0D4FD00F06EF80098019057
:100FA000FFE70198082809DCFFE79DF8040000F03E
:100FB00007F8FFE7019801300190F2E702B080BD29
:100FC00080B586B001468DF816000020ADF81200FD
:100FD0009DF81600012805DBFFE79DF8160009289B
:100FE00004DBFFE701208DF8170041E09DF81600B3
:100FF00001388DF816009DF816004000032101FA13
:1010000000F0BDF8122022EA0000ADF8120041F213
:101010000000C5F6020080220023029001911146D3
:1010200000921A4605F08CFD40208DF80F009DF8C7
:1010300013008DF81000BDF812008DF8110040F279
:10104000F420C2F200400DF10F014FF0FF33019A7E
:1010500009F0F2FE8DF8150001220298009905F0C2
:101060006FFD00F025F89DF815008DF81700FFE7DB
:101070009DF8170006B080BD80B584B041F2000035
:10108000C5F60200042100220390029105F058FDEC
:1010900001200190FFF764FF03980299019A05F07F
:1010A0004FFD0198FFF75CFF04B080BD0000000019
:1010B00080B584B041F20040C5F602004FF4804193
:1010C00000220390029105F03BFD01200190FFF703
:1010D00047FF03980299019A05F032FD04B080BDE4
:1010E00080B584B003900398006842F20001C4F216
:1010F0000201884209D0FFE70398006842F200111C
:10110000C4F20201884209D1FFE742F20830C4F27A
:101110000200006810F4403F09D129E046F208308F
:10112000C5F60200006810F4403F21D0FFE708F048
:10113000DBFA029003984068B0F5803F01900AD036
:10114000FFE70198B0F5003F05D0FFE70198B0F543
:10115000403F07D00AE00398C0880299B1FBF0F045
:10116000029004E002988008029000E0FFE75FE050
:101170004FF40020002106F0BBFA0290039840686B
:10118000B0F5802F009032D0FFE70098B0F5002F27
:101190002DD0FFE70098B0F5402F28D0FFE700984A
:1011A000B0F5801F23D0FFE70098B0F5A01F1ED038
:1011B000FFE70098B0F5C01F19D0FFE70098B0F521
:1011C000E01F1FD0FFE70098B0F5001F1ED0FFE71B
:1011D0000098B0F5101F1DD0FFE70098B0F5201F54
:1011E0001CD0FFE70098B0F5301F1BD01EE003981D
:1011F00040686FF0010101EA50400299B1FBF0F044
:10120000029014E002980009029010E00298400950
:1012100002900CE002988009029008E00298C00950
:10122000029004E00298000A029000E0FFE7FFE766
:10123000029840080290029845F61061C0F25F01E2
:10124000884209D8FFE703980068806820F440705E
:101250000399096888602EE002984BF62041C0F29D
:10126000BE0188420AD8FFE7039800688068012120
:1012700061F309200399096888601BE0029847F62A
:101280004001C0F27D1188420AD8FFE70398006848
:101290008068022161F3092003990968886008E0E9
:1012A00003980068806840F440700399096888607A
:1012B000FFE7FFE7FFE704B080BD0000000000008B
:1012C00080B584B003900398806B02900298006E02
:1012D00010F0500F4CD1FFE70298016E41F40071FD
:1012E00001660298006800680007002822D5FFE721
:1012F000029800680BF05CFA00281AD0FFE7029809
:101300000068C0688004002812D4FFE70298016ECC
:1013100021F4807101660298006EC004002806D492
:10132000FFE70298016E41F001010166FFE7FFE768
:10133000FFE719E002980068C0688007002812D112
:10134000FFE70298016E21F4807101660298006E39
:10135000C004002806D4FFE70298016E41F00101A5
:101360000166FFE7FFE7FFE7029802F025F813E0C8
:101370000298006EC006002804D5FFE7029802F02C
:10138000F7F808E00298806DC06C03990190084658
:1013900001998847FFE7FFE704B080BD0000000027
:1013A00080B582B001900198806B00900098016E2A
:1013B00041F0400101660098416E41F00401416630
:1013C000009802F0D5F802B080BD000000000000D7
:1013D00080B582B001900198806B0090009802F077
:1013E000C3F802B080BD000080B584B002900298BE
:1013F00000680BF0ADF90090029800680BF0B0F9AE
:1014000000284DD0FFE70098002849D1FFE7029857
:101410000068806800F00D00012809D1FFE70298FC
:1014200000680BF015F902980068032101600DE0D7
:101430000298016E41F0100101660298416E41F080
:101440000101416601208DF80F002DE005F094FBAD
:101450000190FFE7029800688068C00700281ED04E
:10146000FFE705F089FB0199401A032816D3FFE72F
:10147000029800688068C00700280ED0FFE7029835
:10148000016E41F0100101660298416E41F00101C8
:10149000416601208DF80F0006E0FFE7DAE7FFE77D
:1014A00000208DF80F00FFE79DF80F0004B080BD0D
:1014B00080B586B00490049800680BF051F90028BC
:1014C00040F09780FFE70498006880683F21C8F2E9
:1014D000000108420ED0FFE70498016E41F01001B0
:1014E00001660498416E41F00101416601208DF8CA
:1014F000170082E0049800680BF0C6F805F03CFB8A
:10150000039004980068012142F20002C4F2020232
:10151000904201910CD0FFE7049800684DF60071ED
:10152000CBF6FD710844B0FA80F040090190FFE766
:101530000198C00746F20031C5F6020100281CBF21
:1015400042F20031C4F2020108460BF0D1F80290D9
:101550000498006842F20011C4F20201884206D1E8
:10156000FFE742F20000C4F20200009003E004989A
:1015700000680090FFE7009804990968884204D049
:10158000FFE70298002833D1FFE7FFE704980068DF
:101590000068C00700282AD1FFE7049800680BF014
:1015A000DFF8002805D1FFE7049800680BF06CF81D
:1015B000FFE705F0E1FA0399401A032816D3FFE785
:1015C000049800680068C00700280ED1FFE704985F
:1015D000016E41F0100101660498416E41F0010175
:1015E000416601208DF8170007E0FFE7CEE7FFE72F
:1015F000FFE700208DF81700FFE79DF8170006B001
:1016000080BD000000000000FFE7FEE700000000D2
:1016100084B003908DED020ACDED010A8DED001A24
:1016200002980399886000980399086101980399CA
:10163000086001980399486004B0704700000000FA
:1016400081B00090009890ED000A90ED011AB4EE80
:10165000410AF1EE10FA09DDFFE70098C0680028A2
:1016600004D1FFE700980121C16038E0009890EDB7
:10167000000A90ED011AB4EE410AF1EE10FA14DD01
:10168000FFE70098C06801280FD1FFE7009801210B
:10169000C160009890ED010A90ED021A90ED042AC5
:1016A00001EE020A80ED010A18E0009890ED000AB0
:1016B00090ED011AB4EE410AF1EE10FA0DDDFFE7EC
:1016C0000098C0680130002807D1FFE7009800218A
:1016D000C160009801684160FFE7FFE7FFE70098FD
:1016E00090ED000A90ED011AB4EE410AF1EE10FA05
:1016F0000ADAFFE70098C068002805D1FFE70098E4
:101700004FF0FF31C16039E0009890ED000A90ED94
:10171000011AB4EE410AF1EE10FA16DAFFE700986A
:10172000C0680130002810D1FFE700984FF0FF316A
:10173000C160009890ED010A90ED021A90ED042A24
:1017400001EE420A80ED010A17E0009890ED000AD0
:1017500090ED011AB4EE410AF1EE10FA0CDAFFE74F
:101760000098C068012807D1FFE700980021C160F8
:10177000009801684160FFE7FFE7FFE7009890ED00
:10178000000A90ED011AB4EE410AF1EE10FA04D10C
:10179000FFE700980021C160FFE701B0704700003B
:1017A00080B540F26C10C2F2004002F0B9FD80BD7D
:1017B00083B002900298006801211022C4F2020254
:1017C0009042009100F0A380FFE702980068012199
:1017D0002822C4F202029042009100F09880FFE7B4
:1017E0000298006801214022C4F202029042009156
:1017F00000F08D80FFE70298006801215822C4F2B2
:1018000002029042009100F08280FFE70298006897
:1018100001217022C4F202029042009177D0FFE7CA
:101820000298006801218822C4F2020290420091CD
:101830006DD0FFE7029800680121A022C4F20202E5
:101840009042009163D0FFE7029800680121B8221E
:10185000C4F202029042009159D0FFE7029800685A
:10186000012140F21042C4F20202904200914ED097
:10187000FFE702980068012140F22842C4F2020208
:101880009042009143D0FFE702980068012140F2A6
:101890004042C4F202029042009138D0FFE7029821
:1018A0000068012140F25842C4F2020290420091C5
:1018B0002DD0FFE702980068012140F27042C4F287
:1018C00002029042009122D0FFE7029800680121B5
:1018D00040F28842C4F202029042009117D0FFE722
:1018E00002980068012140F2A042C4F20202904234
:1018F00000910CD0FFE7029800684FF64831CBF614
:10190000FD710844B0FA80F040090090FFE70098AC
:10191000C007002828D0FFE70298007810384AF660
:10192000AB21CAF6AA21A0FB010109090191019985
:1019300001F0070141F2D842C0F60102515C029A5F
:10194000D1650199042907D3FFE7029801680422B1
:1019500062F30901816506E00298016840F2FF32F6
:1019600091438165FFE705E00298016821F0FF01DE
:101970008165FFE70298806D03B0704700000000AA
:1019800084B00390039800680190039800680121D7
:1019900045F20842C5F60202904200914ED0FFE7A0
:1019A00003980068012145F21C42C5F602029042EC
:1019B000009143D0FFE703980068012145F23042CF
:1019C000C5F602029042009138D0FFE70398006804
:1019D000012145F24442C5F60202904200912DD009
:1019E000FFE703980068012145F25842C5F602025C
:1019F0009042009122D0FFE703980068012145F250
:101A00006C42C5F602029042009117D0FFE703989E
:101A10000068012145F28042C5F602029042009121
:101A20000CD0FFE7039800684AF66C31CAF2FD71EA
:101A30000844B0FA80F040090090FFE70098C00722
:101A4000002823D0FFE70398007808384CF6CD41F2
:101A5000CCF6CC41A0FB010109090291029945F69F
:101A60000002C5F6020202EB8101039A1166039996
:101A700045F68002C5F602024A66029901F01F018E
:101A8000012202FA01F1039A916636E00398007888
:101A900010384AF6AB21CAF6AA21A0FB01010909B8
:101AA0000291019940F2B842C4F2020291420CD86C
:101AB000FFE7019840F21041C4F20201884204D3CA
:101AC000FFE7029808300290FFE7029840F6000115
:101AD000C4F2020101EB800003990866039840F606
:101AE0008001C4F202014166029800F01F0001214A
:101AF00001FA00F003998866FFE704B07047000020
:101B000083B002900298007901900198002800F0BB
:101B10008C80FFE70198082800F28780FFE7029891
:101B20000068012145F20842C5F602029042009188
:101B30004ED0FFE702980068012145F21C42C5F62D
:101B400002029042009143D0FFE702980068012111
:101B500045F23042C5F602029042009138D0FFE7CC
:101B600002980068012145F24442C5F60202904203
:101B700000912DD0FFE702980068012145F25842FC
:101B8000C5F602029042009122D0FFE70298006859
:101B9000012145F26C42C5F602029042009117D035
:101BA000FFE702980068012145F28042C5F6020273
:101BB000904200910CD0FFE7029800684AF66C3121
:101BC000CAF2FD710844B0FA80F040090090FFE7C6
:101BD0000098C007002810D0FFE7019845F6FC01E7
:101BE000C5F6020101EB80000299C866029845F62D
:101BF0004011C5F6020101670FE0019840F6FC01B3
:101C0000C4F2020101EB80000299C866029840F616
:101C10004011C4F202010167FFE701980138012178
:101C200001FA00F002994867FFE703B0704700002F
:101C300085B0049000208DF80F000498806900287A
:101C400024D1FFE70498806A032802901CD80299E7
:101C5000DFE801F0020E0219049890F82F00C00787
:101C6000002804D0FFE701208DF80F00FFE70CE00B
:101C70000498C06AB0F1C07F04D1FFE701208DF85D
:101C80000F00FFE701E000E0FFE749E0049880690A
:101C9000B0F5005F27D1FFE70498806A0328019020
:101CA0001FD80199DFE801F00206021201208DF829
:101CB0000F0017E0049890F82F00C007002804D008
:101CC000FFE701208DF80F00FFE70BE00498C06AE2
:101CD000B0F1C07F04D1FFE701208DF80F00FFE7CE
:101CE00000E0FFE71BE00498806A0328009004D31B
:101CF000FFE70098032804D00FE001208DF80F00C3
:101D00000CE0049890F82F00C007002804D0FFE7EB
:101D100001208DF80F00FFE700E0FFE7FFE7FFE796
:101D20009DF80F0005B0704789B0089007910692A2
:101D300005930898806D04900898806D039008982A
:101D4000006801211022C4F202029042029100F0C8
:101D50000381FFE70898006801212822C4F20202EB
:101D60009042029100F0F880FFE708980068012196
:101D70004022C4F202029042029100F0ED80FFE79F
:101D80000898006801215822C4F202029042029190
:101D900000F0E280FFE70898006801217022C4F299
:101DA00002029042029100F0D780FFE70898006895
:101DB00001218822C4F202029042029100F0CC80FC
:101DC000FFE7089800680121A022C4F202029042B5
:101DD000029100F0C180FFE7089800680121B82255
:101DE000C4F202029042029100F0B680FFE7089828
:101DF0000068012140F21042C4F2020290420291B6
:101E000000F0AA80FFE708980068012140F228420C
:101E1000C4F202029042029100F09E80FFE708980F
:101E20000068012140F24042C4F202029042029155
:101E300000F09280FFE708980068012140F25842C4
:101E4000C4F202029042029100F08680FFE70898F7
:101E50000068012140F27042C4F2020290420291F5
:101E60007AD0FFE708980068012140F28842C4F266
:101E70000202904202916FD0FFE7089800680121AA
:101E800040F2A042C4F202029042029164D0FFE705
:101E900008980068012140F2B842C4F20202904260
:101EA000029159D0FFE708980068012145F20842E5
:101EB000C5F60202904202914ED0FFE708980068F2
:101EC000012145F21C42C5F602029042029143D024
:101ED000FFE708980068012145F23042C5F602028A
:101EE0009042029138D0FFE708980068012145F23E
:101EF0004442C5F60202904202912DD0FFE70898B5
:101F00000068012145F25842C5F602029042029152
:101F100022D0FFE708980068012145F26C42C5F61F
:101F200002029042029117D0FFE708980068012151
:101F300045F28042C5F60202904202910CD0FFE7C2
:101F4000089800684AF66C31CAF2FD710844B0FA8C
:101F500080F040090290FFE70298C00700280FD0E8
:101F6000FFE70898416E806E48600898C06E0028B0
:101F700005D0FFE70898016F406F4860FFE7FFE773
:101F80000898006801211022C4F2020290420191D7
:101F900000F0A380FFE70898006801212822C4F21E
:101FA00002029042019100F09880FFE708980068D3
:101FB00001214022C4F202029042019100F08D8082
:101FC000FFE70898006801215822C4F202029042FB
:101FD000019100F08280FFE70898006801217022DB
:101FE000C4F202029042019177D0FFE7089800689E
:101FF00001218822C4F20202904201916DD0FFE7D4
:10200000089800680121A022C4F2020290420191C6
:1020100063D0FFE7089800680121B822C4F20202E9
:102020009042019159D0FFE708980068012140F2E1
:102030001042C4F20202904201914ED0FFE708988C
:102040000068012140F22842C4F20202904201914C
:1020500043D0FFE708980068012140F24042C4F2F3
:1020600002029042019138D0FFE7089800680121F0
:1020700040F25842C4F20202904201912DD0FFE793
:1020800008980068012140F27042C4F202029042B6
:10209000019122D0FFE708980068012140F28842B0
:1020A000C4F202029042019117D0FFE7089800683D
:1020B000012140F2A042C4F20202904201910CD0F0
:1020C000FFE7089800684FF64831CBF6FD710844E9
:1020D000B0FA80F040090190FFE70198C00700289E
:1020E0002BD0FFE70898C06D00F01F003F2101FAD8
:1020F00000F00499886008980068016821F4802144
:102100000160059808990968486008988068402827
:1021100009D1FFE706980899096888600798089927
:102120000968C86008E007980899096888600698F7
:1021300008990968C860FFE784E0089800680121F1
:1021400045F20842C5F60202904200914ED0FFE7E8
:1021500008980068012145F21C42C5F6020290422F
:10216000009143D0FFE708980068012145F2304212
:10217000C5F602029042009138D0FFE70898006847
:10218000012145F24442C5F60202904200912DD051
:10219000FFE708980068012145F25842C5F602029F
:1021A0009042009122D0FFE708980068012145F293
:1021B0006C42C5F602029042009117D0FFE70898E2
:1021C0000068012145F28042C5F60202904200916A
:1021D0000CD0FFE7089800684AF66C31CAF2FD712E
:1021E0000844B0FA80F040090090FFE70098C0076B
:1021F000002825D0FFE70898C06D00F01F000121DE
:1022000001FA00F003994860059808990968486048
:1022100008988068402809D1FFE70698089909685E
:102220008860079808990968C86008E007980899C5
:1022300009688860069808990968C860FFE700E0A7
:10224000FFE7FFE709B0704770470000000000009B
:1022500080B54FF4004004F063FA80BD0000000038
:1022600081B0EFF3108072B60090FFE7FEE7000048
:1022700044F60C00C5F60200016841F0020101605D
:10228000FFE744F60400C5F6020000688004002859
:1022900001D4FFE7F5E7704780B586B0049003915D
:1022A000029200200090FFE7049890F85C0001285B
:1022B00004D1FFE702208DF817005DE004980121AA
:1022C00080F85C10FFE7FFE70498FFF78DF88DF8C2
:1022D00007009DF8070000283DD1FFE70498006E35
:1022E00040F0020020F488500499086604980068C1
:1022F0000399029A0AF03CFCFFE7049800680AF090
:1023000017FA00281ED0FFE70098013000900098CF
:102310004FF60001C2F2C351884212D3FFE704987E
:10232000006E40F0100020F0020004990866FFE7FC
:102330000498002180F85C10FFE701208DF8170059
:102340001AE0DAE70498006E40F0010020F0020085
:102350000499086605E00498016E41F010010166D9
:10236000FFE7FFE70498002180F85C10FFE79DF885
:1023700007008DF81700FFE79DF8170006B080BD35
:1023800080B5AAB02890279100208DF89B0027984F
:102390000068002801D0FFE7FFE7FFE7289890F8E2
:1023A0005C00012804D1FFE702208DF8A70030E18E
:1023B0002898012180F85C10FFE7FFE700202190BA
:1023C00022902898006842F20001C4F2020188427B
:1023D00006D1FFE742F20010C4F20200099002E0C9
:1023E00000200990FFE7099800280FD1FFE72898FF
:1023F000016E41F020010166FFE72898002180F876
:102400005C10FFE701208DF8A70002E109980AF0AF
:10241000C7F90890289800680AF0C2F9002840F02F
:10242000E480FFE70898002840F0DF80FFE7289865
:102430000068012142F20002C4F2020290420791B8
:102440000CD0FFE7289800684DF60071CBF6FD71BF
:102450000844B0FA80F040090790FFE70798C007EA
:1024600046F20031C5F6020100281CBF42F20031DD
:10247000C4F2020125912798006800285FD0FFE789
:102480002598806820F44040279949680843259999
:10249000886028980068012142F20002C4F202021A
:1024A000904206910CD0FFE7289800684DF6007125
:1024B000CBF6FD710844B0FA80F040090690FFE7C2
:1024C0000698C00746F20031C5F6020100281CBF7D
:1024D00042F20031C4F2020142F20030C4F20200C2
:1024E000814212D1FFE742F20000C4F202000AF07A
:1024F0003FF942F20011C4F20201059008460AF0C9
:1025000037F905990843049007E046F20000C5F644
:1025100002000AF02DF90490FFE7049800280DD17D
:10252000FFE72598806840F61F71884327990A685D
:1025300089681143084325998860FFE754E025988E
:10254000816821F44041816028980068012142F2AD
:102550000002C4F20202904203910CD0FFE72898D7
:1025600000684DF60071CBF6FD710844B0FA80F0BA
:1025700040090390FFE70398C00746F20031C5F613
:10258000020100281CBF42F20031C4F2020142F2F3
:102590000030C4F20200814212D1FFE742F2000093
:1025A000C4F202000AF0E4F842F20011C4F202019F
:1025B000029008460AF0DCF802990843019007E00F
:1025C00046F20000C5F602000AF0D2F80190FFE7DB
:1025D0000198002807D1FFE72598816840F61F720F
:1025E00091438160FFE7FFE708E02898016E41F022
:1025F0002001016601208DF89B00FFE7FFE7289886
:10260000002180F85C10FFE79DF89B008DF8A70083
:10261000FFE79DF8A7002AB080BD00000000000081
:1026200080B5DAB04690459100208DF813014190B5
:10263000469890F84400012801D1FFE70BE0469846
:10264000006846F20001C5F60201884201D1FFE7A9
:1026500000E0FFE7FFE74598C0680021C4F2FF7182
:10266000884201D0FFE71EE04698006842F2000170
:10267000C4F20201884201D1FFE7FFE746980068F3
:1026800042F20011C4F20201884201D1FFE7FFE7E4
:102690004698006846F20001C5F60201884201D161
:1026A000FFE7FFE7FFE7FFE7469890F85C000128A7
:1026B00005D1FFE702208DF81F0100F077BE469894
:1026C000012180F85C10FFE7FFE7469800680AF0F8
:1026D0005FF8002840F05686FFE74598C07800066E
:1026E000002839D4FFE74698006846F20001C5F695
:1026F000020188422FD0FFE74598006800030028B8
:1027000006D1FFE745980068C0F384603E9016E06C
:102710004598006890FAA0F048904898002804D1A5
:10272000FFE720208DF8270105E04898B0FA80F0F7
:102730008DF82701FFE79DF827013E90FFE73E98BF
:1027400000F01F00012101FA00F046990968CA69EA
:102750001043C861FFE7FFE74698006845990A689B
:1027600049680AF059F8469800680AF011F8409054
:102770004698006809F0D4FF3F904098002840F048
:102780007A82FFE73F98002840F07582FFE746987D
:10279000006845990A6889683D9111463D9A0AF09A
:1027A000A3F84698006846F20001C5F60201884287
:1027B0000BD1FFE74598406946990968C96801F05F
:1027C000180189088840439038E041F20000C5F6BE
:1027D0000040006800F07040B0F1805F0BD1FFE76F
:1027E0004598406946990968C96801F01C01490883
:1027F00088403C901FE046980068C068C0060028EA
:102800000BD4FFE74598406946990968C96801F00B
:102810001C01490888403B900AE045984069469968
:102820000968C96801F01001490888403B90FFE73A
:102830003B983C90FFE73C984390FFE74598006940
:1028400004284DD0FFE74698006845990A68096951
:10285000439B0AF0D5F84698006846F20001C5F699
:10286000020188421BD1FFE74698006845990A6932
:10287000C9693A9111463A9A0AF012F946980068E5
:1028800045990A6991F820100139B1FA81F1490995
:10289000490639911146399A0AF0E2F81FE0469844
:1028A000006845990A6991F821100139B1FA81F15E
:1028B0004909C90738911146389A0AF011F9469822
:1028C000006845990A69097E0139B1FA81F149091F
:1028D000C90237911146379A0AF07EF8FFE7C9E13D
:1028E0004698006846F20001C5F60201884240F0B1
:1028F0007781FFE746980068002109F001FF000397
:10290000002809D1FFE746980068002109F0F8FE89
:10291000C0F38460369019E046980068002109F001
:10292000EFFE90FAA0F04A904A98002804D1FFE701
:1029300020208DF82F0105E04A98B0FA80F08DF83C
:102940002F01FFE79DF82F013690FFE73698459954
:10295000096809030029359006D1FFE7459800680A
:10296000C0F38460349016E04598006890FAA0F0B7
:102970004C904C98002804D1FFE720208DF83701B7
:1029800005E04C98B0FA80F08DF83701FFE79DF82C
:1029900037013490FFE734983599814208D1FFE739
:1029A0004698006800213391339A0AF0B9F8FFE79E
:1029B00046980068012109F0A3FE0003002809D110
:1029C000FFE746980068012109F09AFEC0F3846091
:1029D000329019E046980068012109F091FE90FAC2
:1029E000A0F04E904E98002804D1FFE720208DF8EB
:1029F0003F0105E04E98B0FA80F08DF83F01FFE707
:102A00009DF83F013290FFE7329845990968090324
:102A10000029319006D1FFE745980068C0F3846033
:102A2000309016E04598006890FAA0F050905098C9
:102A3000002804D1FFE720208DF8470105E05098D9
:102A4000B0FA80F08DF84701FFE79DF8470130901C
:102A5000FFE730983199814207D1FFE74698006837
:102A6000012100220AF05CF8FFE746980068022185
:102A700009F046FE0003002809D1FFE746980068E8
:102A8000022109F03DFEC0F384602F9019E04698C2
:102A90000068022109F034FE90FAA0F0529052989A
:102AA000002804D1FFE720208DF84F0105E052985F
:102AB000B0FA80F08DF84F01FFE79DF84F012F909D
:102AC000FFE72F9845990968090300292E9006D140
:102AD000FFE745980068C0F384602D9016E04598A4
:102AE000006890FAA0F054905498002804D1FFE7B1
:102AF00020208DF8570105E05498B0FA80F08DF849
:102B00005701FFE79DF857012D90FFE72D982E996B
:102B1000814207D1FFE7469800680221002209F0B0
:102B2000FFFFFFE746980068032109F0E9FD000375
:102B3000002809D1FFE746980068032109F0E0FD6D
:102B4000C0F384602C9019E046980068032109F0D6
:102B5000D7FD90FAA0F056905698002804D1FFE7D0
:102B600020208DF85F0105E05698B0FA80F08DF8CE
:102B70005F01FFE79DF85F012C90FFE72C984599D6
:102B80000968090300292B9006D1FFE745980068E2
:102B9000C0F384602A9016E04598006890FAA0F08F
:102BA00058905898002804D1FFE720208DF867013D
:102BB00005E05898B0FA80F08DF86701FFE79DF8BE
:102BC00067012A90FFE72A982B99814207D1FFE7F6
:102BD000469800680321002209F0A2FFFFE748E0C1
:102BE00046980068006E00F0F84045990968B0EB1F
:102BF000816F07D1FFE746980068016E21F0004120
:102C00000166FFE746980068406E00F0F84045997D
:102C10000968B0EB816F07D1FFE746980068416E05
:102C200021F000414166FFE746980068806E00F0A1
:102C3000F84045990968B0EB816F07D1FFE74698E6
:102C40000068816E21F000418166FFE746980068C8
:102C5000C06E00F0F84045990968B0EB816F07D16C
:102C6000FFE746980068C16E21F00041C166FFE7AA
:102C7000FFE7FFE7FFE74698006809F071FD0028CD
:102C800040F07F83FFE74698006845990A68C96865
:102C900029911146299A09F043FE4598C068002100
:102CA000C4F2FF71884240F0FC81FFE7469800685B
:102CB00042F20001C4F202018842289040F0A48050
:102CC000FFE7459800680221C0F23041884203D1F5
:102CD000FFE70120279094E0459800680421C0F6A2
:102CE0006001884205D1FFE74020C1F62010269000
:102CF00084E0459800680821C0F69041884205D1DB
:102D0000FFE78020C1F65050259074E04598006898
:102D10001021C1F2C001884206D1FFE740F2001045
:102D2000C2F28010249063E0459800682021C1F22F
:102D3000F041884206D1FFE740F20020C2F2B050D5
:102D4000239052E04598006840F20041C2F600210D
:102D5000884206D1FFE740F60000C2F630602290BC
:102D600040E04598006840F60001C2F630618842B4
:102D700006D1FFE741F20000C3F2602021902EE06F
:102D80004598006841F20001C3F26021884206D1F3
:102D9000FFE742F20000C3F2906020901CE04598EB
:102DA00000680021C4F22131884205D1FFE70020EC
:102DB000C4F252701F900CE0459800680021C4F6E0
:102DC00084310022884204BF0022C4F6B8721F92E8
:102DD000FFE71F982090FFE720982190FFE72198B8
:102DE0002290FFE722982390FFE723982490FFE7A3
:102DF00024982590FFE725982690FFE726982790AE
:102E0000FFE727981E9044E14698006842F20011BF
:102E1000C4F20201884240F09480FFE745980068C0
:102E20000221C0F23041884203D1FFE701201D900A
:102E300084E0459800680421C0F66001884205D10D
:102E4000FFE74020C1F620101C9074E04598006810
:102E50000821C0F69041884205D1FFE78020C1F6E5
:102E600050501B9064E0459800681021C1F2C001E9
:102E7000884206D1FFE740F20010C2F280101A909B
:102E800053E0459800682021C1F2F041884206D104
:102E9000FFE740F20020C2F2B050199042E045989E
:102EA000006840F20041C2F60021884206D1FFE7E7
:102EB00040F60000C2F63060189030E04598006897
:102EC00040F60001C2F63061884206D1FFE741F2C8
:102ED0000000C3F2602017901EE04598006841F2A0
:102EE0000001C3F26021884206D1FFE742F20000F0
:102EF000C3F2906016900CE0459800680021C4F67B
:102F000084310022884204BF0022C4F6B8721692AF
:102F1000FFE716981790FFE717981890FFE71898A3
:102F20001990FFE719981A90FFE71A981B90FFE78E
:102F30001B981C90FFE71C981D90FFE71D981590AB
:102F4000A4E04698006846F20001C5F602018842F6
:102F500040F09680FFE7459800680221C0F23041BA
:102F6000884203D1FFE70120149086E0459800686D
:102F70000421C0F66001884205D1FFE74020C1F678
:102F80002010139076E0459800680821C0F6904123
:102F9000884205D1FFE78020C1F65050129066E0CC
:102FA000459800681021C1F2C001884206D1FFE7B0
:102FB00040F20010C2F28010119055E04598006870
:102FC0002021C1F2F041884206D1FFE740F2002003
:102FD000C2F2B050109044E04598006840F20041C1
:102FE000C2F60021884206D1FFE740F60000C2F693
:102FF00030600F9032E04598006840F60001C2F65C
:103000003061884206D1FFE741F20000C3F2602040
:103010000E9020E04598006842F20001C3F29061F2
:10302000884206D1FFE744F20000C3F6C0200D90AD
:103030000EE04598006844F20001C3F6C02100226A
:10304000884204BF48F20002C3F6F0620D92FFE727
:103050000D980E90FFE70E980F90FFE70F981090D5
:10306000FFE710981190FFE711981290FFE7129870
:103070001390FFE713981490FFE714980C9002E068
:1030800000200C90FFE70C981590FFE715981E9014
:10309000FFE71E9828990B9008460B9909F0ECFB66
:1030A000FFE74598C0780006002840F16981FFE7F6
:1030B00046980068012142F20002C4F202029042E6
:1030C0000A910CD0FFE7469800684DF60071CBF6E8
:1030D000FD710844B0FA80F040090A90FFE70A98B1
:1030E000C00746F20031C5F6020100281CBF42F2BB
:1030F0000031C4F20201084609F0F2FA4290469803
:1031000000684FF0010142F20002C4F20202904254
:1031100009910CD0FFE7469800684DF60071CBF698
:10312000FD710844B0FA80F040090990FFE7099862
:10313000C00746F20031C5F6020100281CBF42F26A
:103140000031C4F2020142F20030C4F202008142B6
:1031500012D1FFE742F20000C4F2020009F000FBC6
:1031600042F20011C4F202010890084609F0F8FA90
:1031700008990843079007E046F20000C5F60200F0
:1031800009F0EEFA0790FFE70798002840F0EE807C
:10319000FFE7459800680021CCF25271884259D16E
:1031A000FFE79DF80A010006002853D4FFE7469880
:1031B000006846F20001C5F60201884249D1FFE7E6
:1031C00046980068012142F20002C4F202029042D5
:1031D00006910CD0FFE7469800684DF60071CBF6DB
:1031E000FD710844B0FA80F040090690FFE70698A8
:1031F000C00746F20031C5F6020100281CBF42F2AA
:103200000031C4F20201429840F4000005900846E3
:10321000059909F0D1FB40F20C00C2F200400068B1
:103220004FEA901042F66351C0F23E51A0FB0101FB
:103230004FEA91114FF0020202EB41014191FFE789
:103240004198002804D0FFE7419801384190F7E702
:10325000FFE78AE0459800680021CCF221318842DE
:103260003CD1FFE79DF80B01C007002836D1FFE7EE
:103270004698006846F20001C5F6020188422CD14A
:10328000FFE746980068012142F20002C4F2020200
:10329000904204910CD0FFE7469800684DF600710B
:1032A000CBF6FD710844B0FA80F040090490FFE7C6
:1032B0000498C00746F20031C5F6020100281CBF81
:1032C00042F20031C4F20201429840F08070039053
:1032D0000846039909F070FBFFE745E04598006850
:1032E0000021CCF6843188423CD1FFE79DF80A01E9
:1032F0004006002836D4FFE74698006846F20001F1
:10330000C5F6020188422CD1FFE7469800680121EA
:1033100042F20002C4F20202904202910CD0FFE796
:10332000469800684DF60071CBF6FD710844B0FA7E
:1033300080F040090290FFE70298C00746F2003192
:10334000C5F6020100281CBF42F20031C4F202019E
:10335000429840F4800001900846019909F02CFB46
:10336000FFE700E0FFE7FFE7FFE708E04698016EB0
:1033700041F02001016601208DF81301FFE7FFE70E
:10338000FFE708E04698016E41F020010166012048
:103390008DF81301FFE7FFE74698002180F85C10E5
:1033A000FFE79DF813018DF81F01FFE79DF81F014E
:1033B0005AB080BD0000000080B584B0039040F298
:1033C000F800C2F20000006840F21C01C2F20001E5
:1033D00008600846FEF734F940F20050C2F200409F
:1033E000006840F2D401C2F2004108600846FEF7CE
:1033F00027F903980CF07CFDFDF73AFAFDF7D4FCB1
:103400000DF02EF840F20650C2F20040007800287D
:103410001DD1FFE740F23440C4F2010000210160F9
:1034200040F23840C4F20100016040F23C40C4F276
:10343000010001603420C4F2010001603820C4F2B0
:10344000010001603C20C4F2010001606CE040F228
:103450009400C2F2004090ED000A40F22C41C4F208
:10346000010191ED001AB8EE411A20EE010ABCEEFE
:10347000C00A40F23442C4F2010282ED000A90ED2B
:10348000010A91ED001AB8EE411A20EE010ABCEED5
:10349000C00A40F23842C4F2010282ED000A90ED07
:1034A000020A91ED001AB8EE411A20EE010ABCEEB4
:1034B000C00A40F23C40C4F2010080ED000A40F234
:1034C0001000C2F2000090ED000A2C21C4F20101AC
:1034D00091ED001AB8EE411A20EE010ABCEEC00AC6
:1034E0003422C4F2010282ED000A90ED010A91ED4E
:1034F000001AB8EE411A20EE010ABCEEC00A3822CA
:10350000C4F2010282ED000A90ED020A91ED001A68
:10351000B8EE411A20EE010ABCEEC00A3C20C4F20B
:10352000010080ED000AFFE70CF05AFE40F2FC00BB
:10353000C2F20000038840F25810C2F2004000219D
:1035400002900191019A00F057FE40F20451C2F23C
:1035500000410B881021029A00901046019A00F059
:103560004BFE04B080BD000081B0009001B07047F8
:1035700081B0009001B0704710B592B0109000205B
:103580008DF83F000C901098002804D1FFE701202F
:103590008DF8470079E210980069002808D0FFE70D
:1035A000109890F82000012801D1FFE7FFE7FFE71E
:1035B0001098006E00280AD1FFE7109800F06CFA0E
:1035C000109800214166109880F85C10FFE7109871
:1035D000006809F0B5F8002805D0FFE710980068EA
:1035E00009F046F8FFE71098006809F0C9F80028CC
:1035F0001ED1FFE71098006809F062F840F20C0055
:10360000C2F200400068800942F66351C0F23E51A8
:10361000A0FB0101012202EB91110C91FFE70C9834
:10362000002804D0FFE70C9801380C90F7E7FFE77B
:103630001098006809F0A4F800280ED1FFE7109850
:10364000016E41F0100101661098416E41F00101D8
:10365000416601208DF83F00FFE71098006809F0EF
:1036600097F80D901098006EC006002800F1FF81B9
:10367000FFE70D98002840F0FA81FFE71098006EF0
:1036800040F0020020F480701099086610980068DD
:1036900009F066F8002874D1FFE71098006801214E
:1036A00042F20002C4F20202904209910CD0FFE7FC
:1036B000109800684DF60071CBF6FD710844B0FA21
:1036C00080F040090990FFE70998C00746F20031F1
:1036D000C5F6020100281CBF42F20031C4F202010B
:1036E00042F20030C4F20200814212D1FFE742F2FE
:1036F0000000C4F2020009F033F842F20011C4F2F3
:1037000002010890084609F02BF808990843079031
:1037100007E046F20000C5F6020009F021F8079024
:10372000FFE7079800282BD1FFE7109800680121D8
:1037300042F20002C4F20202904206910CD0FFE76E
:10374000109800684DF60071CBF6FD710844B0FA90
:1037500080F040090690FFE70698C00746F2003166
:10376000C5F6020100281CBF42F20031C4F202017A
:103770001098406805900846059909F00DF9FFE793
:10378000FFE71098006846F20001C5F60201884282
:103790003AD1FFE71098417EC26B42EA413182681C
:1037A000C0680843082A049003D1FFE70020039073
:1037B0001DE0109880680C2803D1FFE704200290D8
:1037C00012E0109880681C2803D1FFE708200190C0
:1037D00007E0109880680021182808BF1C2101917B
:1037E000FFE701980290FFE702980390FFE7039834
:1037F00000F00C00049941EA4000109A92F8202051
:1038000040EA02400E900CE01098417EC26B42EA02
:1038100041318268114390F8200041EA00400E9047
:10382000FFE7109890F8200001280BD1FFE71098CF
:10383000406A0021CFF6FE7101EB40400E9908432B
:103840000E90FFE71098806A00280AD0FFE71098D2
:10385000816AC06A01F4787108430E9908430E909A
:10386000FFE71098006846F20001C5F602018842A1
:1038700018D1FFE710980068C06844F20701CFF63E
:10388000F07108400E99084310990968C8601098B3
:103890000068006920F0406010990A68496B08438D
:1038A00010610DE010980068C0684CF20301CFF67B
:1038B000F07108400E99084310990968C860FFE745
:1038C0001098006808F064FF0B901098006808F0EA
:1038D00027FF0A900B98002840F0A880FFE70A987D
:1038E000002840F0A380FFE71098006846F200012E
:1038F000C5F60201884209D1FFE71098017E90F8D1
:103900003800890341EA40000E9006E01098017EDD
:10391000006B40EA81300E90FFE710980068C068A5
:1039200044F2030188430E99084310990968C8605E
:10393000109890F84400012859D1FFE710980068CA
:1039400046F20001C5F60201884201D1FFE700E01E
:10395000FFE71098806A002805D0FFE71098C06A3A
:10396000002801D1FFE7FFE71098006846F2000148
:10397000C5F6020188421AD1FFE710980068006975
:103980004FF61E01CFF60041084010990A688B6C73
:10399000D1F84CC0D1F850E043EA0C0343EA0E03DF
:1039A000496D1943084340F0010010611EE0109872
:1039B000006800694FF61E01CFF6004108401099DB
:1039C0000A688B6CD1F84CC0D1F850E00024CFF6D7
:1039D000FF7404EB034343EA0C0343EA0E03496D0F
:1039E0001943084340F001001061FFE706E010981A
:1039F0000068016921F001010161FFE7109800688A
:103A0000006920F0704010990A68096C0843106141
:103A10001098006846F20001C5F60201884204D001
:103A2000FFE71098FDF75CFBFFE7FFE710980069E0
:103A300001280CD1FFE710980068006B20F00F0000
:103A400010990A68C96901390843106306E01098A3
:103A50000068016B21F00F010163FFE71098006E11
:103A600040F0010020F002001099086608E010986C
:103A7000016E41F01001016601208DF83F00FFE763
:103A80009DF83F008DF84700FFE79DF8470012B012
:103A900010BD00000000000080B5BCB03B900020CD
:103AA0003A90399038903790369008A8B821FCF7B2
:103AB00065FC3B98006842F20001C4F202018842B2
:103AC00040F0B280FFE7002009904FF400210891F8
:103AD00002210A9110220B920C910D910E91C0219E
:103AE0000F9110901190309008A804F085FB0028E9
:103AF00003D0FFE7FEF7B4FBFFE7FFE744F2D8404F
:103B0000C5F60200016841F020010160006800F084
:103B1000200007900798FFE7FFE744F2E040C5F672
:103B20000200016841F001010160006800F001003D
:103B300006900698FFE7FFE744F2E040C5F6020072
:103B4000016841F004010160006800F00400059084
:103B50000598FFE7FFE744F2E040C5F60200016880
:103B600041F020010160006800F0200004900498FA
:103B7000FFE708203690032037900021389100227B
:103B8000C5F6020236AB0390104602911946019326
:103B900002F0E2FD30203690039837900299389178
:103BA00040F60000C5F60200019902F0D5FD4FF481
:103BB0000060369003993791029A389241F200439F
:103BC000C5F6020300901846019902F0C5FD40F2C7
:103BD0006C10C2F200401021C4F202010160092100
:103BE000416002998160C1604FF480620261009A75
:103BF00042614FF4005383614FF48073C3610162EB
:103C0000416201F095FC002803D0FFE7FEF728FB96
:103C1000FFE7FFE73B9840F26C11C2F2004181657B
:103C20003B988863FFE7FFE73CB080BD00000000E1
:103C300080B58AB008900791069208980068012123
:103C400042F20002C4F20202904203910CD0FFE75C
:103C5000089800684DF60071CBF6FD710844B0FA83
:103C600080F040090390FFE70398C00746F2003157
:103C7000C5F6020100281CBF42F20031C4F2020165
:103C8000084608F035FD04900898006808F080FDAB
:103C9000002840F0CE80FFE7FFE7089890F85C002E
:103CA000012804D1FFE702208DF82700CAE0089818
:103CB000012180F85C10FFE7FFE70498002809D095
:103CC000FFE70498052805D0FFE70498092840F08D
:103CD000A580FFE70898FDF7EBFB8DF817009DF82E
:103CE0001700002840F09280FFE70898006E40F42B
:103CF000807040F60161884308990866089800685A
:103D000042F20011C4F20201884206D1FFE742F2FA
:103D10000000C4F20200029003E0089800680290DC
:103D2000FFE7029808990968884204D0FFE70498E1
:103D3000002806D1FFE70898016E21F48011016682
:103D4000FFE70898006EC004002806D5FFE7089832
:103D5000416E21F00601416603E0089800214166AA
:103D6000FFE70898806D41F2C121C0F60001C163F0
:103D70000898806D41F2D131C0F6000101640898C5
:103D8000806D41F2A131C0F60001C164089800685D
:103D90001C210160FFE70898002180F85C10FFE714
:103DA00008980068416841F0100141600898006877
:103DB00046F20001C5F6020188420FD1FFE70898DC
:103DC000016890F83800400001900846019908F019
:103DD000FBFC0898006808F067FC08E00898016898
:103DE000006B00900846009908F006FDFFE7089870
:103DF0000168806D4031079A069B02F059F88DF8F2
:103E000017000898006808F027FD06E0FFE708980B
:103E1000002180F85C10FFE7FFE709E001208DF842
:103E20001700FFE70898002180F85C10FFE7FFE724
:103E300003E002208DF81700FFE79DF817008DF8CA
:103E40002700FFE79DF827000AB080BD00000000B2
:103E500080B58AB008900791069200208DF817006F
:103E60000898002804D0FFE70798002804D1FFE74E
:103E700001208DF8270052E107980069012801D13F
:103E8000FFE7FFE707980068042801D1FFE706E095
:103E900007988068022801D1FFE7FFE7FFE7FFE707
:103EA00008984079012804D1FFE702208DF8270007
:103EB00035E1089801214171FFE7FFE708980221E9
:103EC000017107980068042840F08480FFE702F041
:103ED00053FE0290069800282FD1FFE7FFE70898CD
:103EE0000068406B48F20001C2F2000108421ED097
:103EF000FFE702F041FE0299401A022816D3FFE7BD
:103F000008980068406B48F20001C2F200010842C4
:103F10000BD0FFE70898016941F00801016108989A
:103F2000032101718DF82710F9E0FFE7D7E7079823
:103F3000806908990968086428E0FFE70898006824
:103F4000406BC00F00281BD0FFE702F015FE02995E
:103F5000401A022813D3FFE708980068406BC00F8F
:103F600000280BD0FFE70898016941F008010161C2
:103F70000898032101718DF82710D0E0FFE7DDE7F5
:103F800007988069089909684864FFE708980068FD
:103F9000806C069901F0100140F2FF328A40904394
:103FA000079AD26902FA01F10843089909688864FE
:103FB00008980068C06C069901F01001FF228A4041
:103FC0009043079A126A02FA01F1084308990968B6
:103FD000C864FFE70798006901281ED1FFE7089829
:103FE0000068806B0490069800F010001F2101FA11
:103FF00000F0049921EA00000490079840690390BA
:104000000398069901F01001884004990843049030
:104010000498089909688863FFE708980068C06BEE
:104020000490069800F01000072101FA00F00499AE
:1040300021EA000004900798C068012803D1FFE737
:104040000020019014E00798C068022803D1FFE720
:10405000012001900BE007988068002803D1FFE75A
:104060000120019002E000200190FFE7FFE7FFE759
:1040700007980168806808430199084303900398F2
:10408000069901F0100188400499084304900498AF
:1040900008990968C863069800F010004FF4804141
:1040A00001FA00F0089909680A6822EA000008602D
:1040B0000898006800680490069800F0100040F628
:1040C000FE7101FA00F0049921EA000004900798BB
:1040D000406803900398069901F010018840049904
:1040E000084304900498089909680860069800F04D
:1040F0001000C02101FA00F0089909680A6822EA54
:1041000000000860089801210171FFE7089800216C
:104110004171FFE79DF817008DF82700FFE79DF834
:1041200027000AB080BD000080B582B000900098E2
:10413000002804D1FFE701208DF8070017E0009860
:104140000079002807D1FFE700980021417100980D
:1041500000F012F8FFE70098022101710098002199
:1041600001610098012202718DF80710FFE79DF8A8
:10417000070002B080BD000080B588B00790002025
:10418000069005900490039002900798006847F20B
:104190000041C4F2000188422BD1FFE7FFE744F25F
:1041A000E840C5F60200016841F000510160006876
:1041B00000F0005001900198FFE7FFE744F2E04073
:1041C000C5F60200016841F001010160006800F0DD
:1041D000010000900098FFE7302002900320039038
:1041E000002004900020C5F6020002A902F0B4FAF3
:1041F000FFE708B080BD000086B0049003910292F2
:104200000193002000900498002804D1FFE70120CA
:104210008DF8170019E004980068009003980028B2
:1042200006D1FFE70298009908440830009005E0A5
:1042300002980099084414300090FFE70198009913
:10424000086000208DF81700FFE79DF8170006B002
:10425000704700000000000083B0019000910198B9
:10426000002804D1FFE701208DF80B0052E0FFE7A2
:1042700001984079012804D1FFE702208DF80B0056
:1042800048E0019801214171FFE7FFE70198022111
:104290000171009800F01000012101FA00F001996D
:1042A00009680A68104308600098002810D1FFE7E9
:1042B00001980068006800F03E00022807D1FFE77F
:1042C00001980068416841F001014160FFE715E095
:1042D00001980068006800F47810009901F010015E
:1042E000022202FA01F1884207D1FFE70198006833
:1042F000416841F002014160FFE7FFE701980121B9
:104300000171FFE7019800214171FFE700208DF85E
:104310000B00FFE79DF80B0003B0704700000000A2
:1043200080B590B00F9000200B9040F20C00C2F2CC
:104330000040006848F2B511C1F64E31A0FB010102
:10434000890A0A910F99896D09910F99896D0891D0
:10435000099909680E91089909680D910F990968E2
:1043600001221023C4F202039942079200F0A380B5
:10437000FFE70F98006801212822C4F20202904250
:10438000079100F09880FFE70F9800680121402214
:10439000C4F202029042079100F08D80FFE70F986F
:1043A000006801215822C4F202029042079100F0F5
:1043B0008280FFE70F98006801217022C4F2020298
:1043C0009042079177D0FFE70F980068012188227B
:1043D000C4F20202904207916DD0FFE70F98006887
:1043E0000121A022C4F202029042079163D0FFE7AC
:1043F0000F9800680121B822C4F20202904207918E
:1044000059D0FFE70F980068012140F21042C4F232
:104410000202904207914ED0FFE70F9800680121F9
:1044200040F22842C4F202029042079143D0FFE7D3
:104430000F980068012140F24042C4F2020290420B
:10444000079138D0FFE70F980068012140F25842E9
:10445000C4F20202904207912DD0FFE70F98006846
:10446000012140F27042C4F202029042079122D030
:10447000FFE70F980068012140F28842C4F202026F
:104480009042079117D0FFE70F980068012140F292
:10449000A042C4F20202904207910CD0FFE70F98AD
:1044A00000684FF64831CBF6FD710844B0FA80F051
:1044B00040090790FFE70798C007002800F029850A
:1044C000FFE70E980F99C96D01F01F01C840000762
:1044D000002840F1B280FFE70F9800681021C4F275
:1044E0000201884200F08180FFE70F9800682821D0
:1044F000C4F20201884278D0FFE70F98006840219B
:10450000C4F20201884270D0FFE70F98006858217A
:10451000C4F20201884268D0FFE70F98006870215A
:10452000C4F20201884260D0FFE70F98006888213A
:10453000C4F20201884258D0FFE70F980068A0211A
:10454000C4F20201884250D0FFE70F980068B821FA
:10455000C4F20201884248D0FFE70F98006840F299
:104560001041C4F2020188423FD0FFE70F98006873
:1045700040F22841C4F20201884236D0FFE70F988A
:10458000006840F24041C4F2020188422DD0FFE7AA
:104590000F98006840F25841C4F20201884224D0CA
:1045A000FFE70F98006840F27041C4F202018842B0
:1045B0001BD0FFE70F98006840F28841C4F2020167
:1045C000884212D0FFE70F98006840F2A041C4F281
:1045D0000201884209D0FFE70F98006840F2B84115
:1045E000C4F20201884207D1FFE70F980068006813
:1045F00000F00400069006E00F980068006800F0E4
:1046000008000690FFE70698002815D0FFE70F98EE
:104610000068016821F0040101600F98C06D00F08E
:104620001F00082101FA00F0099988600F98416D78
:1046300041F001014165FFE7FFE70E980F99C96D51
:1046400001F01F01C840C007002800F0AB80FFE761
:104650000F9800681021C4F20201884200F08180A6
:10466000FFE70F9800682821C4F20201884278D041
:10467000FFE70F9800684021C4F20201884270D021
:10468000FFE70F9800685821C4F20201884268D001
:10469000FFE70F9800687021C4F20201884260D0E1
:1046A000FFE70F9800688821C4F20201884258D0C1
:1046B000FFE70F980068A021C4F20201884250D0A1
:1046C000FFE70F980068B821C4F20201884248D081
:1046D000FFE70F98006840F21041C4F202018842DF
:1046E0003FD0FFE70F98006840F22841C4F2020172
:1046F000884236D0FFE70F98006840F24041C4F28C
:10470000020188422DD0FFE70F98006840F258411F
:10471000C4F20201884224D0FFE70F98006840F2FB
:104720007041C4F2020188421BD0FFE70F98006875
:1047300040F28841C4F20201884212D0FFE70F988C
:10474000006840F2A041C4F20201884209D0FFE7AC
:104750000F98006840F2B841C4F20201884207D1C4
:10476000FFE70F980068406900F08000059005E0C1
:104770000F980068006800210591FFE70598002860
:104780000FD0FFE70F98C06D00F01F00012101FA64
:1047900000F0099988600F98416D41F00201416570
:1047A000FFE7FFE70E980F99C96D01F01F01C840A0
:1047B0004007002840F1AB80FFE70F980068102108
:1047C000C4F20201884200F08180FFE70F98006880
:1047D0002821C4F20201884278D0FFE70F980068D0
:1047E0004021C4F20201884270D0FFE70F980068B0
:1047F0005821C4F20201884268D0FFE70F98006890
:104800007021C4F20201884260D0FFE70F9800686F
:104810008821C4F20201884258D0FFE70F9800684F
:10482000A021C4F20201884250D0FFE70F9800682F
:10483000B821C4F20201884248D0FFE70F9800680F
:1048400040F21041C4F2020188423FD0FFE70F98C6
:10485000006840F22841C4F20201884236D0FFE7E6
:104860000F98006840F24041C4F2020188422DD006
:10487000FFE70F98006840F25841C4F202018842F5
:1048800024D0FFE70F98006840F27041C4F20201A3
:1048900088421BD0FFE70F98006840F28841C4F2BD
:1048A0000201884212D0FFE70F98006840F2A04151
:1048B000C4F20201884209D0FFE70F98006840F275
:1048C000B841C4F20201884207D1FFE70F9800689F
:1048D000006800F00200049005E00F98006800688E
:1048E00000210491FFE7049800280FD0FFE70F98FC
:1048F000C06D00F01F00042101FA00F009998860E2
:104900000F98416D41F004014165FFE7FFE70E9804
:104910000F99C96D01F01F01C840C006002840F181
:10492000E280FFE70F9800681021C4F2020188427C
:1049300000F08180FFE70F9800682821C4F202018F
:10494000884278D0FFE70F9800684021C4F2020146
:10495000884270D0FFE70F9800685821C4F2020126
:10496000884268D0FFE70F9800687021C4F2020106
:10497000884260D0FFE70F9800688821C4F20201E6
:10498000884258D0FFE70F980068A021C4F20201C6
:10499000884250D0FFE70F980068B821C4F20201A6
:1049A000884248D0FFE70F98006840F21041C4F2F7
:1049B000020188423FD0FFE70F98006840F228418B
:1049C000C4F20201884236D0FFE70F98006840F237
:1049D0004041C4F2020188422DD0FFE70F980068E1
:1049E00040F25841C4F20201884224D0FFE70F98F8
:1049F000006840F27041C4F2020188421BD0FFE718
:104A00000F98006840F28841C4F20201884212D037
:104A1000FFE70F98006840F2A041C4F2020188420B
:104A200009D0FFE70F98006840F2B841C4F20201D4
:104A3000884207D1FFE70F980068006800F008007F
:104A4000039006E00F980068006800F004000390EF
:104A5000FFE70398002845D0FFE70F98C06D00F0EE
:104A60001F00102101FA00F0099988600F98006872
:104A70000068400300281CD5FFE70F980068006815
:104A8000000300280AD4FFE70F98006C002804D028
:104A9000FFE70F98016C8847FFE709E00F98806CEB
:104AA000002804D0FFE70F98816C8847FFE7FFE7F5
:104AB00017E00F9800680068C005002807D4FFE7DA
:104AC0000F980068016821F008010160FFE70F9866
:104AD000006C002804D0FFE70F98016C8847FFE7BF
:104AE000FFE7FFE7FFE70E980F99C96D01F01F017F
:104AF000C8408006002840F12E81FFE70F9800682B
:104B00001021C4F20201884200F08180FFE70F9873
:104B100000682821C4F20201884278D0FFE70F988C
:104B200000684021C4F20201884270D0FFE70F986C
:104B300000685821C4F20201884268D0FFE70F984C
:104B400000687021C4F20201884260D0FFE70F982C
:104B500000688821C4F20201884258D0FFE70F980C
:104B60000068A021C4F20201884250D0FFE70F98EC
:104B70000068B821C4F20201884248D0FFE70F98CC
:104B8000006840F21041C4F2020188423FD0FFE7C2
:104B90000F98006840F22841C4F20201884236D0E2
:104BA000FFE70F98006840F24041C4F202018842DA
:104BB0002DD0FFE70F98006840F25841C4F202017F
:104BC000884224D0FFE70F98006840F27041C4F299
:104BD000020188421BD0FFE70F98006840F288412D
:104BE000C4F20201884212D0FFE70F98006840F239
:104BF000A041C4F20201884209D0FFE70F98006883
:104C000040F2B841C4F20201884207D1FFE70F9891
:104C10000068006800F01000029006E00F9800683D
:104C2000006800F002000290FFE70298002800F000
:104C30009180FFE70F98C06D00F01F00202101FA5E
:104C400000F0099988600F9890F8350004283BD14E
:104C5000FFE70F980068016821F0160101600F98C6
:104C60000068416921F0800141610F98006C0028C3
:104C700005D1FFE70F98806C002807D0FFE70F9859
:104C80000068016821F008010160FFE70F98C06D1E
:104C900000F01F003F2101FA00F0099988600F9889
:104CA000012180F83510FFE70F98002180F83410BB
:104CB000FFE70F98006D002804D0FFE70F98016D03
:104CC0008847FFE700F031BC0F9800680068400398
:104CD00000281CD5FFE70F98006800680003002833
:104CE0000AD4FFE70F98406C002804D0FFE70F9824
:104CF000416C8847FFE709E00F98C06B002804D09B
:104D0000FFE70F98C16B8847FFE7FFE721E00F98A7
:104D100000680068C005002811D4FFE70F980068FC
:104D2000016821F0100101600F98012180F8351011
:104D3000FFE70F98002180F83410FFE7FFE70F9896
:104D4000C06B002804D0FFE70F98C16B8847FFE7CE
:104D5000FFE7FFE7FFE70F98406D002800F0D880DD
:104D6000FFE70F98406DC007002800F0C780FFE7FD
:104D70000F98042180F835100F9800681021C4F2B4
:104D80000201884200F08180FFE70F980068282127
:104D9000C4F20201884278D0FFE70F9800684021F2
:104DA000C4F20201884270D0FFE70F9800685821D2
:104DB000C4F20201884268D0FFE70F9800687021B2
:104DC000C4F20201884260D0FFE70F980068882192
:104DD000C4F20201884258D0FFE70F980068A02172
:104DE000C4F20201884250D0FFE70F980068B82152
:104DF000C4F20201884248D0FFE70F98006840F2F1
:104E00001041C4F2020188423FD0FFE70F980068CA
:104E100040F22841C4F20201884236D0FFE70F98E1
:104E2000006840F24041C4F2020188422DD0FFE701
:104E30000F98006840F25841C4F20201884224D021
:104E4000FFE70F98006840F27041C4F20201884207
:104E50001BD0FFE70F98006840F28841C4F20201BE
:104E6000884212D0FFE70F98006840F2A041C4F2D8
:104E70000201884209D0FFE70F98006840F2B8416C
:104E8000C4F20201884208D1FFE70F980068016868
:104E900021F001010A46016007E00F9800680168EF
:104EA00021F001010A460160FFE7FFE70B9801309E
:104EB0000B900A99884201D9FFE707E0FFE70F98B6
:104EC00000680068C0070028F0D1FFE70F9800686D
:104ED0000068C007002805D0FFE70F98032180F87D
:104EE000351004E00F98012180F83510FFE7FFE747
:104EF0000F98002180F83410FFE7FFE70F98C06C8F
:104F0000002804D0FFE70F98C16C8847FFE7FFE750
:104F10000BE30F980068012145F20842C5F6020232
:104F2000904201914ED0FFE70F980068012145F2B1
:104F30001C42C5F602029042019143D0FFE70F9850
:104F40000068012145F23042C5F60202904201910B
:104F500038D0FFE70F980068012145F24442C5F6BA
:104F60000202904201912DD0FFE70F9800680121C5
:104F700045F25842C5F602029042019122D0FFE765
:104F80000F980068012145F26C42C5F6020290427A
:104F9000019117D0FFE70F980068012145F2804288
:104FA000C5F60202904201910CD0FFE70F9800680D
:104FB0004AF66C31CAF2FD710844B0FA80F040093B
:104FC0000190FFE70198C007002800F0AC82FFE7DE
:104FD0000F98006800680C900D980F99C96D01F04A
:104FE0001F01C8404007002840F1DE80FFE79DF820
:104FF00030004007002840F1D780FFE70F98C06DD0
:1050000000F01F00042101FA00F0089948609DF8A3
:105010003100000600281BD5FFE79DF83200C007CD
:1050200000280AD1FFE70F98806C002804D0FFE722
:105030000F98816C8847FFE709E00F98006C002803
:1050400004D0FFE70F98016C8847FFE7FFE7AAE06D
:105050009DF830008006002800F19B80FFE70F9844
:1050600000681021C4F20201884200F08180FFE74D
:105070000F9800682821C4F20201884278D0FFE727
:105080000F9800684021C4F20201884270D0FFE707
:105090000F9800685821C4F20201884268D0FFE7E7
:1050A0000F9800687021C4F20201884260D0FFE7C7
:1050B0000F9800688821C4F20201884258D0FFE7A7
:1050C0000F980068A021C4F20201884250D0FFE787
:1050D0000F980068B821C4F20201884248D0FFE767
:1050E0000F98006840F21041C4F2020188423FD09C
:1050F000FFE70F98006840F22841C4F2020188429D
:1051000036D0FFE70F98006840F24041C4F2020138
:1051100088422DD0FFE70F98006840F25841C4F252
:105120000201884224D0FFE70F98006840F27041E6
:10513000C4F2020188421BD0FFE70F98006840F2DA
:105140008841C4F20201884212D0FFE70F9800683C
:1051500040F2A041C4F20201884209D0FFE70F9853
:10516000006840F2B841C4F20201884208D1FFE76A
:105170000F980068016821F008010A46016007E005
:105180000F980068016821F004010A460160FFE7FA
:10519000FFE70F98006C002804D0FFE70F98016C20
:1051A0008847FFE7FFE7BDE10D980F99C96D01F052
:1051B0001F01C8408007002840F1E880FFE79DF804
:1051C00030008007002840F1E180FFE70F98C06DB4
:1051D00000F01F00022101FA00F0089948609DF8D4
:1051E0003100000600281BD5FFE79DF83200C007FC
:1051F00000280AD1FFE70F98406C002804D0FFE791
:105200000F98416C8847FFE709E00F98C06B0028B2
:1052100004D0FFE70F98C16B8847FFE7FFE7B4E0D2
:105220009DF830008006002800F1A580FFE70F9868
:1052300000681021C4F20201884200F08180FFE77B
:105240000F9800682821C4F20201884278D0FFE755
:105250000F9800684021C4F20201884270D0FFE735
:105260000F9800685821C4F20201884268D0FFE715
:105270000F9800687021C4F20201884260D0FFE7F5
:105280000F9800688821C4F20201884258D0FFE7D5
:105290000F980068A021C4F20201884250D0FFE7B5
:1052A0000F980068B821C4F20201884248D0FFE795
:1052B0000F98006840F21041C4F2020188423FD0CA
:1052C000FFE70F98006840F22841C4F202018842CB
:1052D00036D0FFE70F98006840F24041C4F2020167
:1052E00088422DD0FFE70F98006840F25841C4F281
:1052F0000201884224D0FFE70F98006840F2704115
:10530000C4F2020188421BD0FFE70F98006840F208
:105310008841C4F20201884212D0FFE70F9800686A
:1053200040F2A041C4F20201884209D0FFE70F9881
:10533000006840F2B841C4F20201884208D1FFE798
:105340000F980068016821F014010A46016007E027
:105350000F980068016821F00A010A460160FFE722
:105360000F98012180F83510FFE70F98002180F891
:105370003410FFE7FFE70F98C06B002804D0FFE769
:105380000F98C16B8847FFE7FFE7CAE00D980F99B8
:10539000C96D01F01F01C8400007002840F1BF801F
:1053A000FFE79DF830000007002840F1B880FFE7D4
:1053B0000F9800681021C4F20201884200F0818039
:1053C000FFE70F9800682821C4F20201884278D0D4
:1053D000FFE70F9800684021C4F20201884270D0B4
:1053E000FFE70F9800685821C4F20201884268D094
:1053F000FFE70F9800687021C4F20201884260D074
:10540000FFE70F9800688821C4F20201884258D053
:10541000FFE70F980068A021C4F20201884250D033
:10542000FFE70F980068B821C4F20201884248D013
:10543000FFE70F98006840F21041C4F20201884271
:105440003FD0FFE70F98006840F22841C4F2020104
:10545000884236D0FFE70F98006840F24041C4F21E
:10546000020188422DD0FFE70F98006840F25841B2
:10547000C4F20201884224D0FFE70F98006840F28E
:105480007041C4F2020188421BD0FFE70F98006808
:1054900040F28841C4F20201884212D0FFE70F981F
:1054A000006840F2A041C4F20201884209D0FFE73F
:1054B0000F98006840F2B841C4F20201884208D156
:1054C000FFE70F980068016821F01C010A4601609F
:1054D00007E00F980068016821F00E010A4601609C
:1054E000FFE70F98C06D00F01F00012101FA00F0E6
:1054F000089A50600F9841650F9880F83510FFE7C3
:105500000F98002180F83410FFE70F98C06C002836
:1055100004D0FFE70F98C16C8847FFE700E0FFE782
:10552000FFE7FFE700E0FFE7FFE710B080BD000006
:1055300080B58EB00C9001F01FFB0A900C980028EB
:1055400005D1FFE701208DF8370000F0ACBC0C98C6
:10555000006801211022C4F202029042079100F07B
:10556000A380FFE70C98006801212822C4F2020200
:105570009042079100F09880FFE70C9800680121A5
:105580004022C4F202029042079100F08D80FFE7B2
:105590000C98006801215822C4F20202904207913F
:1055A00000F08280FFE70C98006801217022C4F2AD
:1055B00002029042079177D0FFE70C980068012122
:1055C0008822C4F20202904207916DD0FFE70C9846
:1055D00000680121A022C4F202029042079163D028
:1055E000FFE70C9800680121B822C4F20202904241
:1055F000079159D0FFE70C980068012140F2104252
:10560000C4F20202904207914ED0FFE70C98006866
:10561000012140F22842C4F202029042079143D095
:10562000FFE70C980068012140F24042C4F20202F8
:105630009042079138D0FFE70C980068012140F2B2
:105640005842C4F20202904207912DD0FFE70C9815
:105650000068012140F27042C4F2020290420791B8
:1056600022D0FFE70C980068012140F28842C4F282
:1056700002029042079117D0FFE70C9800680121C1
:1056800040F2A042C4F20202904207910CD0FFE720
:105690000C9800684FF64831CBF6FD710844B0FA1B
:1056A00080F040090790FFE70798C007002800F046
:1056B0008081FFE70C98406A002801D0FFE7FFE7F0
:1056C0000C98022180F83510FFE70C98002180F833
:1056D0003410FFE70C9800681021C4F202018842E0
:1056E00000F08180FFE70C9800682821C4F20201D5
:1056F000884278D0FFE70C9800684021C4F202018C
:10570000884270D0FFE70C9800685821C4F202016B
:10571000884268D0FFE70C9800687021C4F202014B
:10572000884260D0FFE70C9800688821C4F202012B
:10573000884258D0FFE70C980068A021C4F202010B
:10574000884250D0FFE70C980068B821C4F20201EB
:10575000884248D0FFE70C98006840F21041C4F23C
:10576000020188423FD0FFE70C98006840F22841D0
:10577000C4F20201884236D0FFE70C98006840F27C
:105780004041C4F2020188422DD0FFE70C98006826
:1057900040F25841C4F20201884224D0FFE70C983D
:1057A000006840F27041C4F2020188421BD0FFE75A
:1057B0000C98006840F28841C4F20201884212D07D
:1057C000FFE70C98006840F2A041C4F20201884251
:1057D00009D0FFE70C98006840F2B841C4F202011A
:1057E000884208D1FFE70C980068016821F00101A8
:1057F0000A46016007E00C980068016821F0010189
:105800000A460160FFE7FFE70C9800680068C007E0
:10581000002813D0FFE701F0AFF90A99401A0628D3
:105820000BD3FFE70C98202141650C98032180F8E9
:10583000351001208DF8370035E3E5E70C98006856
:1058400000680B900B9848F23F01CFF610610840BA
:105850000B900C988168C2680369D0F814C011439A
:10586000194341EA0C0182691143C2691143006A7C
:1058700008430B9908430B900C98406A042808D100
:10588000FFE70C98C16A006B08430B9908430B9023
:10589000FFE70C984068292807D3FFE70C98406879
:1058A00001212F28069136D3FFE70C9840683F2846
:1058B00007D3FFE70C9840680121432806912AD3BB
:1058C000FFE70C984068472807D3FFE70C9840682B
:1058D0000121492806911ED3FFE70C9840684F2804
:1058E00007D3FFE70C98406801215328069112D393
:1058F000FFE70C98406800217428059108D3FFE762
:105900000C9840680021782838BF01210591FFE7F5
:1059100005980690FFE70698C007002805D0FFE726
:105920000B9840F480100B90FFE70B980C990968D6
:1059300008600C98006840690B900B9820F00700F5
:105940000B900C98406A0B9908430B900C98406A96
:1059500004281CD1FFE70C98806A0B9908430B9030
:105960000C98C06A002811D0FFE70C98FCF760F98A
:1059700000280AD0FFE70C98402141650C980121CE
:1059800080F835108DF837108DE2FFE7FFE70B98B0
:105990000C99096848610C98FBF70AFF09900C986C
:1059A000C06D00F01F003F2101FA00F009998860E6
:1059B0002AE10C980068012145F20842C5F602026E
:1059C000904204914ED0FFE70C980068012145F207
:1059D0001C42C5F602029042049143D0FFE70C98A6
:1059E0000068012145F23042C5F60202904204915E
:1059F00038D0FFE70C980068012145F24442C5F613
:105A00000202904204912DD0FFE70C98006801211A
:105A100045F25842C5F602029042049122D0FFE7B7
:105A20000C980068012145F26C42C5F602029042D2
:105A3000049117D0FFE70C980068012145F28042DD
:105A4000C5F60202904204910CD0FFE70C98006862
:105A50004AF66C31CAF2FD710844B0FA80F0400990
:105A60000490FFE70498C007002800F0C180FFE71A
:105A70000C980068012145F20842C5F602029042E6
:105A800003914ED0FFE70C980068012145F21C42BB
:105A9000C5F602029042039143D0FFE70C980068DC
:105AA000012145F23042C5F602029042039138D0FE
:105AB000FFE70C980068012145F24442C5F6020256
:105AC000904203912DD0FFE70C980068012145F228
:105AD0005842C5F602029042039122D0FFE70C988B
