:020000040800F2
:10000000C8040020E102000811CA0008E1BA000893
:1000100009CA00085911000831ED0008000000006D
:1000200000000000000000000000000079D100087E
:10003000F11B000800000000D9CB0008D9D100084E
:10004000FF020008FF020008FF020008FF0200088C
:10005000FF020008FF020008FF020008FF0200087C
:10006000FF020008FF020008FF02000861110008FB
:10007000FF020008FF020008FF020008FF0200085C
:10008000FF020008FF020008FF020008FF0200084C
:10009000FF020008FF020008FF020008FF0200083C
:1000A000FF020008FF020008FF020008FF0200082C
:1000B000FF020008FF020008FF020008FF0200081C
:1000C000FF020008FF020008FF020008FF0200080C
:1000D000FF020008FF020008FF020008FF020008FC
:1000E000F91B0008FF02000800000000FF020008E2
:1000F000FF020008FF020008FF020008FF020008DC
:10010000FF020008FF020008FF020008FF020008CB
:10011000FF020008FF020008FF020008FF020008BB
:10012000FF020008FF020008FF020008FF020008AB
:10013000FF020008FF020008FF020008FF0200089B
:1001400000000000000000000000000000000000AF
:10015000FF020008FF020008FF020008FF0200087B
:10016000FF020008FF020008FF020008FF0200086B
:10017000FF020008FF020008FF0200080000000064
:10018000FF020008FF020008FF020008FF0200084B
:10019000FF020008FF020008FF020008FF0200083B
:1001A000FF020008FF020008FF0200080000000034
:1001B000FF020008FF020008FF020008FF0200081B
:1001C000FF020008FF02000800000000000000001D
:1001D0000000000000000000FF0200080000000016
:1001E000000000000000000000000000000000000F
:1001F0000000000000000000FF020008FF020008ED
:10020000FF020008FF02000800000000FF020008D3
:10021000FF020008FF020008FF020008FF020008BA
:10022000FF02000800000000FF02000800000000BC
:10023000FF020008FF02000800000000FF020008A3
:10024000FF020008FF020008FF020008FF0200088A
:10025000FF020008FF020008FF020008FF0200087A
:10026000FF020008FF020008FF020008FF0200086A
:10027000FF020008FF020008FF0200080000000063
:10028000FF020008FF020008FF020008FF0200084A
:1002900000000000FF020008FF020008000000004C
:1002A00000000000FF020008FF020008FF02000833
:1002B000FF020008FF020008FF020008FF0200081A
:1002C000FF020008FF020008FF020008DFF80CD060
:1002D00000F07EF80048004739F80008C804002004
:1002E000074880470748804707480047FEE7FEE782
:1002F000FEE7FEE7FEE7FEE7FEE7FEE7FEE7FEE7D6
:10030000191C0008B1D20008CD0200082DE9F05FE9
:100310000546002092469B46884606468146402474
:100320001BE0284641464746224600F041F8534626
:100330005A46C01A914110D311461846224600F081
:1003400028F82D1A67EB01084F46224601200021AC
:1003500000F01FF817EB00094E41201EA4F1010424
:10036000DFDC484631462A464346BDE8F09FD2B21C
:1003700001E000F8012B491EFBD270470022F6E78E
:1003800010B513460A4604461946FFF7F0FF20460B
:1003900010BD202A04DB203A00FA02F10020704749
:1003A0009140C2F1200320FA03F3194390407047B3
:1003B000202A04DB203A21FA02F00021704721FABA
:1003C00002F3D040C2F12002914008431946704721
:1003D000064C074D06E0E06840F0010394E8070092
:1003E00098471034AC42F6D3FFF774FF30FE000894
:1003F00070FE00080000000080B58CB0002000F006
:1004000087F907A8022100F00BFA079847F6FF7159
:100410000291401A00EE100AB8EEC00A9FED1F1AB2
:100420008DED031A20EE010A9FED1D1A8DED041AC1
:1004300080EE010A40F20C00C2F20040019080ED13
:10044000000A90ED000AD0ED020A042005900FF09A
:1004500017FA0199029A9DED032A9DED041A059859
:1004600081ED010A0899891A00EE101AB8EEC00A47
:1004700020EE020A80EE010A40F27001C2F2000191
:10048000069181ED000A91ED000AD1ED020A0FF00C
:10049000F7F9069880ED010A0CB080BDDB0F4940EA
:1004A00000FEFF460000000080B586B08DF8170002
:1004B0009DF817000146049140B1FFE70498012818
:1004C00016D0FFE70498022823D035E00020C5F6B7
:1004D00002004FF40061002205F0D2FE40F200401D
:1004E000C5F602004FF48061012205F0C9FE24E048
:1004F00040F20040C5F6020002904FF48061039183
:10050000012205F0BDFE02980399002205F0B8FE15
:1005100013E00020C5F602004FF4006100220192B2
:1005200005F0AEFE019A40F20040C5F602004FF41D
:10053000806105F0A5FE00E0FFE7012000F090FAE1
:1005400006B080BD0000000080B586B040F20040DB
:10055000C5F602000190802102910022009205F070
:100560008FFE009A41F20000C5F6020003900221BE
:10057000049105F085FE0120059000F071FA0198C4
:100580000299059A05F07CFE03980499059A05F0F6
:1005900077FE059800F064FA06B080BD0000000008
:1005A00080B586B040F20040C5F602000090802180
:1005B00001910122059205F063FE059A41F20000C7
:1005C000C5F6020002900221039105F059FE05983C
:1005D00000F046FA009801990022049205F050FEBE
:1005E00002980399049A05F04BFE059800F038FA3A
:1005F00006B080BD0000000080B588B041F2004028
:10060000C5F602000490022101910122079205F033
:1006100037FE079A40F60000C5F602000590082153
:10062000029105F02DFE0498079A114605F028FE68
:100630000598079A0421069105F022FE0A2005F08C
:1006400093FB019904980022039205F019FE029988
:10065000039A059805F014FE502005F085FB039AD7
:100660000498079905F00CFE039A0598069905F081
:1006700007FE079805F078FB0498079A114605F0E5
:10068000FFFD05980699079A05F0FAFD08B080BDB0
:1006900080B58AB000F0F4F9FFF7AEFFFFF754FF22
:1006A0000220019000F034F80198FFF7FDFE40F2BF
:1006B000A810C2F2004002909121039120220492DE
:1006C00000F0AAF90298882105910122069200F013
:1006D000A3F902988A2108917F22099200F09CF9DF
:1006E0000399049A40F23020C2F20040079000F0D3
:1006F00093F90599069A079800F08EF907980899DA
:10070000099A00F089F90AB080BD000000000000DD
:1007100080B588B08DF81F009DF81F0028BBFFE74B
:100720000020C5F602004FF400410022069205F0B9
:10073000A7FD069A40F20040C5F6020005904FF46E
:10074000805105F09DFD0598069A4FF4007105F063
:1007500097FD069A41F20000C5F60200102105F04F
:100760008FFD012000F07CF956E09DF81F00012864
:1007700026D1FFE70020C5F602004FF40041002219
:10078000029205F07DFD029A40F20040C5F602009B
:1007900003904FF4805105F073FD03984FF40071FE
:1007A0000122049205F06CFD049A41F20000C5F6A6
:1007B0000200102105F064FD049800F051F92AE0D0
:1007C0009DF81F00022825D1FFE70020C5F6020092
:1007D0004FF400410122019205F052FD019A40F2CE
:1007E0000040C5F6020000904FF4805105F048FD2E
:1007F0000098019A4FF4007105F042FD019A41F210
:100800000000C5F60200102105F03AFD019800F045
:1008100027F9FFE7FFE7FFE708B080BD0000000011
:1008200080B586B001910146019804918DF81700BA
:1008300000200861C8608860486008609DF8170063
:10084000FFF732FE00F0B8F8FFF7AAFE40F2A8105A
:10085000C2F2004002900CF037FC049A0146029864
:10086000090211600CF030FC04990246086810443B
:10087000086040F23020C2F2004003900CF024FCEB
:10088000049A01460398090251600CF01DFC04997A
:100890000246486810444860FFF756FE06B080BD27
:1008A00080B586B001910146019804918DF817003A
:1008B00000200861C8608860486008609DF81700E3
:1008C000FFF7F2FD00F078F8FFF76AFE40F2A8109B
:1008D000C2F2004002900CF0F7FB049A0146029825
:1008E000090291600CF0F0FB0499024688681044FC
:1008F000886040F23020C2F2004003900CF0E4FB2C
:10090000049A014603980902D1600CF0DDFB0499BA
:100910000246C8681044C860FFF716FE06B080BDE6
:1009200080B586B00120FFF7F3FE01A80221FFF792
:10093000B7FF039940F20C00C2F200400182B0F907
:10094000101000EE101AB8EEC00A9FED181A20EE33
:10095000010A80ED060A90ED050A90ED064A9FED2A
:10096000143A20EE030A9FED132A04EE020A80EDEA
:10097000050A049940F27000C2F200000182B0F949
:10098000101000EE101AB8EEC00A20EE410A80EDF9
:10099000060A90ED050A90ED061A20EE030A01EE14
:1009A000020A80ED050A06B080BD00BFB072A83E05
:1009B000A4707D3F0AD7233C80B586B041F2004049
:1009C000C5F60200029001220592114605F058FC7E
:1009D000059A40F60000C5F6020003900421049138
:1009E00005F04EFC029805990022019205F048FCA2
:1009F000019A0398049905F043FC0A2000F030F8AE
:100A00000298059A114605F03BFC03980499059A53
:100A100005F036FC06B080BD80B582B001908DF83F
:100A200003108DF802200220FFF772FEFFF7B8FDD9
:100A300001989DF803100CF08FFBFFF785FD032054
:100A400000F00EF8FFF7ACFD01989DF802100CF0D5
:100A500083FBFFF779FD02B080BD000000000000BD
:100A600082B0019001980090FFE7009820B1FFE765
:100A7000009801380090F8E702B0704700000000CD
:100A800040F20C01C2F2004100200860486047F2C9
:100A9000EE72C3F610728A6088818873C8734861E9
:100AA000886140F27001C2F200010860486042F2C1
:100AB000B002C3F605728A6088818873C873486182
:100AC000886170470000000082B00190019800909A
:100AD000FFE7009820B1FFE7009801380090F8E7A1
:100AE00002B070470000000080B582B041F2000003
:100AF000C5F602004FF480410122009205F0C0FBD0
:100B000000F06EF800980190FFE70198082809DCD2
:100B1000FFE79DF8040000F007F8FFE701980130B7
:100B20000190F2E702B080BD80B586B08DF8160066
:100B30000020ADF812009DF81600012805DBFFE744
:100B40009DF81600092804DBFFE701208DF8170047
:100B50003FE09DF8160001388DF816009DF816004C
:100B600041000320009000FA01F1BDF81200884313
:100B7000ADF8120041F20000C5F60200029080219B
:100B80000191002205F07CFB009A40208DF80F00B7
:100B90009DF813008DF81000BDF812008DF81100BB
:100BA00040F2B820C2F200400DF10F014FF0FF33C8
:100BB00009F06EFC0199024602988DF81520012279
:100BC00005F05EFB00F028F89DF815008DF8170081
:100BD000FFE79DF8170006B080BD00000000000090
:100BE00080B584B041F20000C5F6020001900421F6
:100BF0000291002205F044FB01200390FFF764FFFF
:100C000001980299039A05F03BFB0398FFF75CFFFC
:100C100004B080BD0000000080B584B041F2004007
:100C2000C5F6020001904FF480410291002205F0C8
:100C300027FB01200390FFF747FF01980299039AD1
:100C400005F01EFB04B080BD80B584B0039003980E
:100C5000006842F20001C4F20201884209D0FFE7B5
:100C60000398006842F20011C4F20201884209D1DF
:100C7000FFE742F20830C4F20200006810F4403F7F
:100C800009D129E046F20830C5F60200006810F4E8
:100C9000403F21D0FFE708F073F8029003984068C6
:100CA0000190B0F5803F0AD0FFE70198B0F5003F12
:100CB00005D0FFE70198B0F5403F07D00AE0039860
:100CC000C1880298B0FBF1F0029004E0029880081D
:100CD000029000E0FFE75FE04FF40020002106F003
:100CE0009FF80290039840680090B0F5802F32D0B2
:100CF000FFE70098B0F5002F2DD0FFE70098B0F582
:100D0000402F28D0FFE70098B0F5801F23D0FFE7E1
:100D10000098B0F5A01F1ED0FFE70098B0F5C01FE7
:100D200019D0FFE70098B0F5E01F1FD0FFE700984B
:100D3000B0F5001F1ED0FFE70098B0F5101F1DD0C2
:100D4000FFE70098B0F5201F1CD0FFE70098B0F532
:100D5000301F1BD01EE0039841686FF0010000EACD
:100D600051410298B0FBF1F0029014E002980009A2
:100D7000029010E00298400902900CE0029880096D
:100D8000029008E00298C009029004E00298000A6C
:100D9000029000E0FFE7FFE7029840080290029807
:100DA00045F61061C0F25F01884209D8FFE7039859
:100DB0000068806820F440700399096888602EE01C
:100DC00002984BF62041C0F2BE0188420AD8FFE7E4
:100DD000039800688068012161F30920039909687C
:100DE00088601BE0029847F64001C0F27D118842FE
:100DF0000AD8FFE7039800688068022161F30920A0
:100E000003990968886008E003980068806840F4E6
:100E10004070039909688860FFE7FFE7FFE704B0C7
:100E200080BD00000000000080B582B001900198F4
:100E3000806B00900098006E10F0500F4AD1FFE7D1
:100E40000099086E40F40070086600980068006819
:100E50000007002821D5FFE7009800680AF0F4FE9B
:100E6000D0B1FFE700980068C0688004002812D461
:100E7000FFE70099086E20F4807008660098006E05
:100E8000C004002806D4FFE70099086E40F0010076
:100E90000866FFE7FFE7FFE718E000980068C06812
:100EA000800790B9FFE70099086E20F4807008660B
:100EB0000098006EC004002806D4FFE70099086E71
:100EC00040F001000866FFE7FFE7FFE7009801F048
:100ED0000FFF10E00098006EC006002804D5FFE761
:100EE000009801F07DFF05E00098806DC16C0198CD
:100EF0008847FFE7FFE702B080BD00000000000068
:100F000080B582B001900198806B00900099086EC6
:100F100040F0400008660099486E40F004004866C2
:100F2000009801F05DFF02B080BD000000000000ED
:100F300080B582B001900198806B0090009801F01C
:100F40004BFF02B080BD000080B584B002900298D3
:100F500000680AF049FE0090029800680AF04CFE12
:100F600000284BD0FFE70098002847D1FFE7029800
:100F70000068806800F00D00012809D1FFE70298A1
:100F800000680AF0B1FD02980168032008600DE0D6
:100F90000299086E40F0100008660299486E40F011
:100FA0000100486601208DF80F002BE005F080F964
:100FB0000190FFE7029800688068C007E8B1FFE78A
:100FC00005F076F90199401A032815D3FFE7029836
:100FD00000688068C00770B1FFE70299086E40F0B2
:100FE000100008660299486E40F001004866012032
:100FF0008DF80F0006E0FFE7DCE7FFE700208DF843
:101000000F00FFE79DF80F0004B080BD0000000056
:1010100080B586B00490049800680AF0EDFD0028C1
:1010200040F09280FFE70498006880683F21C8F292
:10103000000108420ED0FFE70499086E40F010004E
:1010400008660499486E40F00100486601208DF85A
:1010500017007DE0049800680AF062FD05F028F9A9
:10106000039004980168012042F20002C4F20202D7
:10107000914201900CD0FFE7049800684DF6007192
:10108000CBF6FD710844B0FA80F040090190FFE70B
:101090000198C10746F20030C5F6020000291CBFC6
:1010A00042F20030C4F202000AF06EFD0290049891
:1010B000006842F20011C4F20201884206D1FFE743
:1010C00042F20000C4F20200009003E004980068BD
:1010D0000090FFE7009804990968884203D0FFE771
:1010E000029880BBFFE7FFE7049800680068C0072C
:1010F00040BBFFE7049800680AF07EFD28B9FFE7CF
:10110000049800680AF00CFDFFE705F0D1F8039998
:10111000401A032815D3FFE7049800680068C00749
:1011200070B9FFE70499086E40F010000866049952
:10113000486E40F00100486601208DF8170007E076
:10114000FFE7D1E7FFE7FFE700208DF81700FFE793
:101150009DF8170006B080BDFFE7FEE70000000025
:1011600080B540F23010C2F2004002F0E5FC80BDD4
:1011700083B002900298016801201022C4F202029A
:101180009142009000F0A380FFE7029801680120DF
:101190002822C4F202029142009000F09880FFE7FA
:1011A0000298016801204022C4F20202914200909C
:1011B00000F08D80FFE70298016801205822C4F2F8
:1011C00002029142009000F08280FFE702980168DD
:1011D00001207022C4F202029142009077D0FFE712
:1011E0000298016801208822C4F202029142009014
:1011F0006DD0FFE7029801680120A022C4F202022C
:101200009142009063D0FFE7029801680120B82264
:10121000C4F202029142009059D0FFE7029801689F
:10122000012040F21042C4F20202914200904ED0DE
:10123000FFE702980168012040F22842C4F202024E
:101240009142009043D0FFE702980168012040F2EC
:101250004042C4F202029142009038D0FFE7029867
:101260000168012040F25842C4F20202914200900B
:101270002DD0FFE702980168012040F27042C4F2CD
:1012800002029142009022D0FFE7029801680120FB
:1012900040F28842C4F202029142009017D0FFE768
:1012A00002980168012040F2A042C4F20202914279
:1012B00000900CD0FFE7029800684FF64831CBF65B
:1012C000FD710844B0FA80F040090090FFE70098F3
:1012D000C00740B3FFE70298007810384AF6AB2108
:1012E000CAF6AA21A0FB011000090190019800F0A4
:1012F00007014FF60060C0F60000405C0299C86527
:101300000198042807D3FFE702990868042262F3D2
:101310000900886506E00299086840F2FF329043B0
:101320008865FFE705E00299086820F0FF008865FE
:10133000FFE70298806D03B07047000000000000D6
:1013400084B003900398006801900398016801201D
:1013500045F20842C5F60202914200904ED0FFE7E6
:1013600003980168012045F21C42C5F60202914231
:10137000009043D0FFE703980168012045F2304216
:10138000C5F602029142009038D0FFE70398016849
:10139000012045F24442C5F60202914200902DD050
:1013A000FFE703980168012045F25842C5F60202A2
:1013B0009142009022D0FFE703980168012045F296
:1013C0006C42C5F602029142009017D0FFE70398E5
:1013D0000168012045F28042C5F602029142009068
:1013E0000CD0FFE7039800684AF66C31CAF2FD7131
:1013F0000844B0FA80F040090090FFE70098C00769
:1014000010B3FFE70398007808384CF6CD41CCF6CE
:10141000CC41A0FB011000090290029945F60000A2
:10142000C5F6020000EB810003990866039945F6B2
:101430008000C5F602004866029800F01F010120F6
:1014400088400399886635E00398007810384AF69A
:10145000AB21CAF6AA21A0FB011000090290019855
:1014600040F2B841C4F2020188420CD8FFE701986B
:1014700040F21041C4F20201884204D3FFE702980F
:1014800008300290FFE7029940F60000C4F2020023
:1014900000EB810003990866039940F68000C4F2CE
:1014A00002004866029800F01F010120884003995D
:1014B0008866FFE704B0704783B002900298007915
:1014C00001900198002800F08A80FFE70198082821
:1014D00000F28580FFE702980168012045F208428A
:1014E000C5F60202914200904ED0FFE702980168D3
:1014F000012045F21C42C5F602029142009043D001
:10150000FFE702980168012045F23042C5F6020269
:101510009142009038D0FFE702980168012045F21F
:101520004442C5F60202914200902DD0FFE7029896
:101530000168012045F25842C5F60202914200902E
:1015400022D0FFE702980168012045F26C42C5F6FF
:1015500002029142009017D0FFE702980168012033
:1015600045F28042C5F60202914200900CD0FFE79E
:10157000029800684AF66C31CAF2FD710844B0FA6C
:1015800080F040090090FFE70098C00780B1FFE7B6
:10159000019945F6FC00C5F6020000EB81000299B6
:1015A000C866029945F64010C5F6020008670FE0CC
:1015B000019940F6FC00C4F2020000EB81000299A0
:1015C000C866029940F64010C4F202000867FFE7BF
:1015D0000198411E0120884002994867FFE703B047
:1015E000704700000000000085B0049000208DF8D6
:1015F0000F000498806918BBFFE70498806A029086
:1016000003281BD80299DFE801F0020D02180498A4
:1016100090F82F00C00720B1FFE701208DF80F00E0
:10162000FFE70CE00498C06AB0F1C07F04D1FFE787
:1016300001208DF80F00FFE701E000E0FFE747E041
:1016400004988069B0F5005F26D1FFE70498806AAE
:10165000019003281ED80199DFE801F0020602116B
:1016600001208DF80F0016E0049890F82F00C007B5
:1016700020B1FFE701208DF80F00FFE70BE0049891
:10168000C06AB0F1C07F04D1FFE701208DF80F00E0
:10169000FFE700E0FFE71AE00498806A0090032863
:1016A00004D3FFE70098032804D00EE001208DF852
:1016B0000F000BE0049890F82F00C00720B1FFE75F
:1016C00001208DF80F00FFE700E0FFE7FFE7FFE7ED
:1016D0009DF80F0005B0704789B0089007910692F9
:1016E00005930898806D04900898806D0390089881
:1016F000016801201022C4F202029142029000F01F
:101700000381FFE70898016801202822C4F2020241
:101710009142029000F0F880FFE7089801680120EC
:101720004022C4F202029142029000F0ED80FFE7F5
:101730000898016801205822C4F2020291420290E6
:1017400000F0E280FFE70898016801207022C4F2EF
:1017500002029142029000F0D780FFE708980168EA
:1017600001208822C4F202029142029000F0CC8053
:10177000FFE7089801680120A022C4F2020291420A
:10178000029000F0C180FFE7089801680120B822AC
:10179000C4F202029142029000F0B680FFE708987E
:1017A0000168012040F21042C4F20202914202900C
:1017B00000F0AA80FFE708980168012040F2284263
:1017C000C4F202029142029000F09E80FFE7089866
:1017D0000168012040F24042C4F2020291420290AC
:1017E00000F09280FFE708980168012040F258421B
:1017F000C4F202029142029000F08680FFE708984E
:101800000168012040F27042C4F20202914202904B
:101810007AD0FFE708980168012040F28842C4F2BC
:101820000202914202906FD0FFE708980168012000
:1018300040F2A042C4F202029142029064D0FFE75B
:1018400008980168012040F2B842C4F202029142B5
:10185000029059D0FFE708980168012045F208423C
:10186000C5F60202914202904ED0FFE70898016847
:10187000012045F21C42C5F602029142029043D07B
:10188000FFE708980168012045F23042C5F60202E0
:101890009142029038D0FFE708980168012045F294
:1018A0004442C5F60202914202902DD0FFE708980B
:1018B0000168012045F25842C5F6020291420290A9
:1018C00022D0FFE708980168012045F26C42C5F676
:1018D00002029142029017D0FFE7089801680120A8
:1018E00045F28042C5F60202914202900CD0FFE719
:1018F000089800684AF66C31CAF2FD710844B0FAE3
:1019000080F040090290FFE70298C00770B1FFE73E
:101910000898416E806E48600898C06E28B1FFE755
:101920000898016F406F4860FFE7FFE7089801687B
:1019300001201022C4F202029142019000F0A38023
:10194000FFE70898016801202822C4F202029142B0
:10195000019000F09880FFE708980168012040227C
:10196000C4F202029142019000F08D80FFE70898D6
:10197000016801205822C4F202029142019000F055
:101980008280FFE70898016801207022C4F20202F9
:101990009142019077D0FFE70898016801208822E2
:1019A000C4F20202914201906DD0FFE708980168ED
:1019B0000120A022C4F202029142019063D0FFE70D
:1019C000089801680120B822C4F2020291420190F5
:1019D00059D0FFE708980168012040F21042C4F294
:1019E0000202914201904ED0FFE708980168012061
:1019F00040F22842C4F202029142019043D0FFE734
:101A000008980168012040F24042C4F2020291426B
:101A1000019038D0FFE708980168012040F2584251
:101A2000C4F20202914201902DD0FFE708980168AC
:101A3000012040F27042C4F202029142019022D091
:101A4000FFE708980168012040F28842C4F20202D0
:101A50009142019017D0FFE708980168012040F2F9
:101A6000A042C4F20202914201900CD0FFE7089814
:101A700000684FF64831CBF6FD710844B0FA80F0AB
:101A800040090190FFE70198C00750B3FFE70898AD
:101A9000C06D00F01F013F208840049988600898BD
:101AA0000168086820F48020086005980899096892
:101AB000486008988068402809D1FFE7069808998F
:101AC00009688860079808990968C86008E007985D
:101AD000089909688860069808990968C860FFE74E
:101AE00082E008980168012045F20842C5F602022A
:101AF000914200904ED0FFE708980168012045F21E
:101B00001C42C5F602029142009043D0FFE70898BC
:101B10000168012045F23042C5F602029142009070
:101B200038D0FFE708980168012045F24442C5F625
:101B30000202914200902DD0FFE708980168012031
:101B400045F25842C5F602029142009022D0FFE7CA
:101B500008980168012045F26C42C5F602029142E4
:101B6000009017D0FFE708980168012045F28042F5
:101B7000C5F60202914200900CD0FFE70898006879
:101B80004AF66C31CAF2FD710844B0FA80F040099F
:101B90000090FFE70098C00720B3FFE70898C06DEA
:101BA00000F01F01012088400399486005980899BA
:101BB0000968486008988068402809D1FFE70698BE
:101BC000089909688860079808990968C86008E05A
:101BD0000798089909688860069808990968C86094
:101BE000FFE700E0FFE7FFE709B0704700000000F3
:101BF000704700000000000080B54FF4004004F082
:101C000037F980BD0000000081B0EFF3108072B69C
:101C10000090FFE7FEE7000044F60C01C5F6020164
:101C2000086840F002000860FFE744F60400C5F6CB
:101C3000020000688004002801D4FFE7F5E7704740
:101C400080B586B004900391029200200090FFE7D7
:101C5000049890F85C00012804D1FFE702208DF879
:101C600017005BE00499012081F85C00FFE7FFE7C3
:101C70000498FFF769F98DF807009DF80700E0BBAD
:101C8000FFE70498006E40F0020020F488500499A9
:101C90000866049800680399029A0AF0B1F9FFE710
:101CA0000498006809F090FFF0B1FFE70098013058
:101CB000009000984FF60001C2F2C351884212D33F
:101CC000FFE70498006E40F0100020F00200049935
:101CD0000866FFE70499002081F85C00FFE7012017
:101CE0008DF817001AE0DBE70498006E40F0010061
:101CF00020F002000499086605E00499086E40F09F
:101D000010000866FFE7FFE70499002081F85C00F7
:101D1000FFE79DF807008DF81700FFE79DF8170013
:101D200006B080BD0000000080B5AAB028902791C1
:101D300000208DF89B002798006808B1FFE7FFE7B7
:101D4000FFE7289890F85C00012804D1FFE7022003
:101D50008DF8A7002DE12899012081F85C00FFE7AC
:101D6000FFE70020219022902898006842F20001AD
:101D7000C4F20201884206D1FFE742F20010C4F229
:101D80000200099002E000200990FFE7099878B965
:101D9000FFE72899086E40F020000866FFE72899C1
:101DA000002081F85C00FFE701208DF8A70000E12A
:101DB000099809F041FF08902898006809F03CFF55
:101DC000002840F0E280FFE70898002840F0DD801E
:101DD000FFE728980168012042F20002C4F20202E3
:101DE000914207900CD0FFE7289800684DF60071EB
:101DF000CBF6FD710844B0FA80F040090790FFE788
:101E00000798C10746F20030C5F6020000291CBF42
:101E100042F20030C4F202002590279800680028A2
:101E20005ED0FFE72598806820F4404027994968F4
:101E300008432599886028980168012042F2000231
:101E4000C4F20202914206900CD0FFE72898006885
:101E50004DF60071CBF6FD710844B0FA80F04009F0
:101E60000690FFE70698C10746F20030C5F602006B
:101E700000291CBF42F20030C4F2020042F20031DD
:101E8000C4F20201884212D1FFE742F20000C4F21C
:101E9000020009F0B9FE049042F20010C4F2020000
:101EA00009F0B2FE014604980843059007E046F2A7
:101EB0000000C5F6020009F0A7FE0590FFE70598AF
:101EC00068B9FFE72598806840F61F718843279A14
:101ED000116892681143084325998860FFE753E031
:101EE0002599886820F4404088602898016801207E
:101EF00042F20002C4F20202914203900CD0FFE7CA
:101F0000289800684DF60071CBF6FD710844B0FAD0
:101F100080F040090390FFE70398C10746F20030C4
:101F2000C5F6020000291CBF42F20030C4F20200D4
:101F300042F20031C4F20201884212D1FFE742F2BC
:101F40000000C4F2020009F05FFE019042F20010AE
:101F5000C4F2020009F058FE0146019808430290BD
:101F600007E046F20000C5F6020009F04DFE0290BF
:101F7000FFE7029838B9FFE72599886840F61F7295
:101F800090438860FFE7FFE708E02899086E40F07B
:101F90002000086601208DF89B00FFE7FFE72899E5
:101FA000002081F85C00FFE79DF89B008DF8A700FA
:101FB000FFE79DF8A7002AB080BD000000000000E8
:101FC00080B5CEB03A90399100208DF8E30035907D
:101FD0003A9890F84400012801D1FFE70BE03A98C5
:101FE000006846F20001C5F60201884201D1FFE710
:101FF00000E0FFE7FFE73998C0680021C4F2FF71F5
:10200000884201D0FFE71EE03A98006842F20001E2
:10201000C4F20201884201D1FFE7FFE73A98006865
:1020200042F20011C4F20201884201D1FFE7FFE74A
:102030003A98006846F20001C5F60201884201D1D3
:10204000FFE7FFE7FFE7FFE73A9890F85C00012819
:1020500005D1FFE702208DF8EF0000F043BE3A996A
:10206000012081F85C00FFE7FFE73A98006809F07B
:10207000DBFD002840F02286FFE73998C078000693
:10208000002837D4FFE73A98006846F20001C5F609
:10209000020188422DD0FFE739980068000330B96B
:1020A000FFE739980068C0F38460329015E03998F2
:1020B000006890FAA0F03C903C9820B9FFE72020FF
:1020C0008DF8F70005E03C98B0FA80F08DF8F70045
:1020D000FFE79DF8F7003290FFE7329800F01F010C
:1020E000012000FA01F23A980168C8691043C861FA
:1020F000FFE7FFE73A98006839990A68496809F0EC
:10210000D7FD3A98006809F08FFD34903A9800683E
:1021100009F052FD33903498002840F05A82FFE7CE
:102120003398002840F05582FFE73A980068399AC2
:102130001168926809F024FE3A98006846F200019E
:10214000C5F6020188420BD1FFE7399840693A99F8
:102150000968C96801F0180189088840379038E09B
:1021600041F20000C5F60040006800F07040B0F198
:10217000805F0BD1FFE7399840693A990968C968CF
:1021800001F01C014908884031901FE03A9800682E
:10219000C068C00600280BD4FFE7399840693A9917
:1021A0000968C96801F01C014908884030900AE0BC
:1021B000399840693A990968C96801F010014908DD
:1021C00088403090FFE730983190FFE731983790A2
:1021D000FFE739980069042841D0FFE73A98006882
:1021E00039990A680969379B09F052FE3A980068E4
:1021F00046F20001C5F60201884215D1FFE73A9880
:102200000068399A1169D26909F092FE3A9800681B
:10221000399A116992F82020013AB2FA82F25209F1
:10222000520609F065FE19E03A980068399A11697A
:1022300092F82120013AB2FA82F25209D20709F04B
:1022400097FE3A980068399A1169127E013AB2FAFB
:1022500082F25209D20209F007FEFFE7B8E13A988C
:10226000006846F20001C5F60201884240F066812E
:10227000FFE73A980068002109F08EFC000348B996
:10228000FFE73A980068002109F086FCC0F38460FB
:102290002F9018E03A980068002109F07DFC90FA30
:1022A000A0F03E903E9820B9FFE720208DF8FF0077
:1022B00005E03E98B0FA80F08DF8FF00FFE79DF84A
:1022C000FF002F90FFE72F982E90399800680003A9
:1022D00030B9FFE739980068C0F384602D9015E0AD
:1022E0003998006890FAA0F04090409820B9FFE734
:1022F00020208DF8070105E04098B0FA80F08DF8B5
:102300000701FFE79DF807012D90FFE72E982D9913
:10231000884207D1FFE73A9800680022114609F089
:1023200047FEFFE73A980068012109F035FC0003F9
:1023300048B9FFE73A980068012109F02DFCC0F385
:1023400084602C9018E03A980068012109F024FC80
:1023500090FAA0F04290429820B9FFE720208DF833
:102360000F0105E04298B0FA80F08DF80F01FFE709
:102370009DF80F012C90FFE72C982B90399800685E
:10238000000330B9FFE739980068C0F384602A90F1
:1023900015E03998006890FAA0F04490449820B96C
:1023A000FFE720208DF8170105E04498B0FA80F08F
:1023B0008DF81701FFE79DF817012A90FFE72B988A
:1023C0002A99884207D1FFE73A9800680121002244
:1023D00009F0EEFDFFE73A980068022109F0DCFB06
:1023E000000348B9FFE73A980068022109F0D4FBDE
:1023F000C0F38460299018E03A980068022109F03F
:10240000CBFB90FAA0F04690469820B9FFE7202039
:102410008DF81F0105E04698B0FA80F08DF81F0195
:10242000FFE79DF81F012990FFE729982890399828
:102430000068000330B9FFE739980068C0F3846092
:10244000279015E03998006890FAA0F048904898D5
:1024500020B9FFE720208DF8270105E04898B0FA61
:1024600080F08DF82701FFE79DF827012790FFE70F
:1024700028982799884207D1FFE73A9800680221F7
:10248000002209F095FDFFE73A980068032109F062
:1024900083FB000348B9FFE73A980068032109F07D
:1024A0007BFBC0F38460269018E03A980068032113
:1024B00009F072FB90FAA0F04A904A9820B9FFE721
:1024C00020208DF82F0105E04A98B0FA80F08DF8B1
:1024D0002F01FFE79DF82F012690FFE72698259012
:1024E00039980068000330B9FFE739980068C0F3F5
:1024F0008460249015E03998006890FAA0F04C9020
:102500004C9820B9FFE720208DF8370105E04C9862
:10251000B0FA80F08DF83701FFE79DF8370124907D
:10252000FFE725982499884207D1FFE73A98006889
:102530000321002209F03CFDFFE748E03A980068DB
:10254000006E00F0F84039990968B0EB816F07D14F
:10255000FFE73A980168086E20F000400866FFE740
:102560003A980068406E00F0F84039990968B0EB7D
:10257000816F07D1FFE73A980168486E20F000406C
:102580004866FFE73A980068806E00F0F840399995
:102590000968B0EB816F07D1FFE73A980168886E50
:1025A00020F000408866FFE73A980068C06E00F0AF
:1025B000F84039990968B0EB816F07D1FFE73A9885
:1025C0000168C86E20F00040C866FFE7FFE7FFE73C
:1025D000FFE73A98006809F00FFB002840F06D8390
:1025E000FFE73A980068399A1168D26809F0E4FB6D
:1025F0003998C0680021C4F2FF71884240F0F98127
:10260000FFE73A980068239042F20001C4F2020109
:10261000884240F0A480FFE7399800680221C0F2A8
:102620003041884203D1FFE70120229094E039989D
:1026300000680421C0F66001884205D1FFE7402010
:10264000C1F62010219084E0399800680821C0F676
:102650009041884205D1FFE78020C1F6505020907C
:1026600074E0399800681021C1F2C001884206D197
:10267000FFE740F20010C2F280101F9063E039982B
:1026800000682021C1F2F041884206D1FFE740F204
:102690000020C2F2B0501E9052E03998006840F21B
:1026A0000041C2F60021884206D1FFE740F6000053
:1026B000C2F630601D9040E03998006840F6000195
:1026C000C2F63061884206D1FFE741F20000C3F252
:1026D00060201C902EE03998006841F20001C3F29E
:1026E0006021884206D1FFE742F20000C3F2906009
:1026F0001B901CE0399800680021C4F22131884207
:1027000005D1FFE70020C4F252701A900CE039980E
:1027100001680022C4F684320020914204BF0020E8
:10272000C4F6B8701A90FFE71A981B90FFE71B9841
:102730001C90FFE71C981D90FFE71D981E90FFE777
:102740001E981F90FFE71F982090FFE72098219088
:10275000FFE721982290FFE72298199044E13A98E8
:10276000006842F20011C4F20201884240F09480F5
:10277000FFE7399800680221C0F23041884203D156
:10278000FFE70120189084E0399800680421C0F622
:102790006001884205D1FFE74020C1F62010179064
:1027A00074E0399800680821C0F69041884205D14C
:1027B000FFE78020C1F65050169064E03998006819
:1027C0001021C1F2C001884206D1FFE740F200109B
:1027D000C2F28010159053E0399800682021C1F2B0
:1027E000F041884206D1FFE740F20020C2F2B0502B
:1027F000149042E03998006840F20041C2F600218E
:10280000884206D1FFE740F60000C2F63060139020
:1028100030E03998006840F60001C2F63061884225
:1028200006D1FFE741F20000C3F2602012901EE0E3
:102830003998006841F20001C3F26021884206D154
:10284000FFE742F20000C3F2906011900CE039986B
:1028500001680022C4F684320020914204BF0020A7
:10286000C4F6B8701190FFE711981290FFE7129824
:102870001390FFE713981490FFE714981590FFE763
:1028800015981690FFE716981790FFE7179818907D
:10289000FFE718981090A4E03A98006846F200010B
:1028A000C5F60201884240F09680FFE7399800683B
:1028B0000221C0F23041884203D1FFE701200F908E
:1028C00086E0399800680421C0F66001884205D18D
:1028D000FFE74020C1F620100E9076E0399800689E
:1028E0000821C0F69041884205D1FFE78020C1F65B
:1028F00050500D9066E0399800681021C1F2C00177
:10290000884206D1FFE740F20010C2F280100C901E
:1029100055E0399800682021C1F2F041884206D183
:10292000FFE740F20020C2F2B0500B9044E039982B
:10293000006840F20041C2F60021884206D1FFE75C
:1029400040F60000C2F630600A9032E03998006824
:1029500040F60001C2F63061884206D1FFE741F23D
:102960000000C3F26020099020E03998006842F22C
:102970000001C3F29061884206D1FFE744F20000F3
:10298000C3F6C02008900EE03998016844F20002B6
:10299000C3F6C0220020914204BF48F20000C3F6F3
:1029A000F0600890FFE708980990FFE709980A90FF
:1029B000FFE70A980B90FFE70B980C90FFE70C9845
:1029C0000D90FFE70D980E90FFE70E980F90FFE730
:1029D0000F98079002E000200790FFE707981090FB
:1029E000FFE710981990FFE72398199909F090F9DB
:1029F000FFE73998C0780006002840F15D81FFE7C5
:102A00003A980168012042F20002C4F202029142A7
:102A100006900CD0FFE73A9800684DF60071CBF6AF
:102A2000FD710844B0FA80F040090690FFE706986F
:102A3000C10746F20030C5F6020000291CBF42F271
:102A40000030C4F2020009F097F836903A98016815
:102A50004FF0010042F20002C4F2020291420590DE
:102A60000CD0FFE73A9800684DF60071CBF6FD7187
:102A70000844B0FA80F040090590FFE70598C107C7
:102A800046F20030C5F6020000291CBF42F20030B9
:102A9000C4F2020042F20031C4F20201884212D1B3
:102AA000FFE742F20000C4F2020009F0A5F803902B
:102AB00042F20010C4F2020009F09EF801460398A9
:102AC0000843049007E046F20000C5F6020009F052
:102AD00093F80490FFE70498002840F0E380FFE7B4
:102AE000399800680021CCF25271884255D1FFE735
:102AF0009DF8DA00000600284FD4FFE73A980068F6
:102B000046F20001C5F60201884245D1FFE73A9836
:102B10000168012042F20002C4F2020291420290D6
:102B20000CD0FFE73A9800684DF60071CBF6FD71C6
:102B30000844B0FA80F040090290FFE70298C1070C
:102B400046F20030C5F6020000291CBF42F20030F8
:102B5000C4F20200369941F4000109F075F940F21F
:102B60000400C2F2000000684FEA901042F6635180
:102B7000C0F23E51A0FB01104FEA90114FF002004D
:102B800000EB41003590FFE7359820B1FFE735981D
:102B900001383590F8E7FFE783E0399800680021B5
:102BA000CCF22131884238D1FFE79DF8DB00C00725
:102BB00098BBFFE73A98006846F20001C5F60201AB
:102BC000884229D1FFE73A980168012042F20002C9
:102BD000C4F20202914201900CD0FFE73A980068DB
:102BE0004DF60071CBF6FD710844B0FA80F0400953
:102BF0000190FFE70198C10746F20030C5F60200D8
:102C000000291CBF42F20030C4F20200369941F0A4
:102C1000807109F019F9FFE742E039980068002156
:102C2000CCF68431884239D1FFE79DF8DA004006BE
:102C3000002833D4FFE73A98006846F20001C5F651
:102C40000201884229D1FFE73A980168012042F247
:102C50000002C4F20202914200900CD0FFE73A98C1
:102C600000684DF60071CBF6FD710844B0FA80F0B3
:102C700040090090FFE70098C10746F20030C5F612
:102C8000020000291CBF42F20030C4F20200369953
:102C900041F4800109F0D8F8FFE700E0FFE7FFE723
:102CA000FFE708E03A99086E40F02000086601202E
:102CB0008DF8E300FFE7FFE7FFE708E03A99086EC9
:102CC00040F02000086601208DF8E300FFE7FFE7F1
:102CD0003A99002081F85C00FFE79DF8E3008DF849
:102CE000EF00FFE79DF8EF004EB080BD0000000050
:102CF00080B584B0039003980CF07AFBFDF77CFB61
:102D0000FDF70EFE0CF0CCF940F2C440C2F20040D8
:102D1000007870B9FFE73421C4F201010020086097
:102D20003821C4F2010108603C21C4F201010860AD
:102D300034E040F23001C2F2000191ED000A2C2093
:102D4000C4F2010090ED001AB8EE411A20EE010A1B
:102D5000BCEEC00A3422C4F2010282ED000A91EDF9
:102D6000010A90ED001AB8EE411A20EE010ABCEEFD
:102D7000C00A3822C4F2010282ED000A91ED020A73
:102D800090ED001AB8EE411A20EE010ABCEEC00A1E
:102D90003C20C4F2010080ED000AFFE70CF07CFC4F
:102DA00040F2C040C2F20040038840F21C10C2F260
:102DB0000040029000220192114600F031FE019A7B
:102DC000029840F2C241C2F200410B88102100F08B
:102DD00027FE04B080BD000081B0009001B07047B4
:102DE00081B0009001B0704710B590B00E900020F7
:102DF0008DF837000A900E9820B9FFE701208DF872
:102E00003F006EE20E98006940B1FFE70E9890F81F
:102E10002000012801D1FFE7FFE7FFE70E98006ED1
:102E200050B9FFE70E9800F063FA0E99002048664B
:102E30000E9981F85C00FFE70E98006808F0CCFE60
:102E400028B1FFE70E98006808F05EFEFFE70E98D5
:102E5000006808F0E1FEE8B9FFE70E98006808F0A6
:102E60007BFE40F20400C2F200000068800942F6D6
:102E70006351C0F23E51A0FB0101012000EB911013
:102E80000A90FFE70A9820B1FFE70A9801380A90F4
:102E9000F8E7FFE70E98006808F0BEFE70B9FFE79C
:102EA0000E99086E40F0100008660E99486E40F0CA
:102EB0000100486601208DF83700FFE70E98006892
:102EC00008F0B2FE0B900E98006EC006002800F1CC
:102ED000FA81FFE70B98002840F0F581FFE70E9894
:102EE000006E40F0020020F480700E9908660E9883
:102EF000006808F081FE002870D1FFE70E98016895
:102F0000012042F20002C4F20202914207900CD06A
:102F1000FFE70E9800684DF60071CBF6FD7108448E
:102F2000B0FA80F040090790FFE70798C10746F222
:102F30000030C5F6020000291CBF42F20030C4F286
:102F4000020042F20031C4F20201884212D1FFE7CE
:102F500042F20000C4F2020008F04EFE059042F278
:102F60000010C4F2020008F047FE0146059808432D
:102F7000069007E046F20000C5F6020008F03CFEAD
:102F80000690FFE7069840BBFFE70E980168012016
:102F900042F20002C4F20202914204900CD0FFE718
:102FA0000E9800684DF60071CBF6FD710844B0FA3A
:102FB00080F040090490FFE70498C10746F2003012
:102FC000C5F6020000291CBF42F20030C4F2020024
:102FD0000E99496808F028FFFFE7FFE70E980068A0
:102FE00046F20001C5F6020188423AD1FFE70E9A87
:102FF000517ED06B40EA41319068D2681143039111
:10300000082803D1FFE7002002901DE00E98806899
:103010000C2803D1FFE70420019012E00E9880688D
:103020001C2803D1FFE70820009007E00E98816874
:103030000020182908BF1C200090FFE7009801908D
:10304000FFE701980290FFE70398029901F00C0155
:1030500040EA41000E9991F8201040EA01400C909E
:103060000CE00E994A7EC86B40EA42308A681043F1
:1030700091F8201040EA01400C90FFE70E9890F87C
:10308000200001280BD1FFE70E98416A0020CFF6FF
:10309000FE7000EB41410C9808430C90FFE70E983E
:1030A000806A50B1FFE70E99886AC96A00F47870A7
:1030B00001430C9808430C90FFE70E98006846F215
:1030C0000001C5F60201884218D1FFE70E9800689A
:1030D000C06844F20701CFF6F07108400C9908432C
:1030E0000E990968C8600E980068006920F0406079
:1030F0000E9A1168526B104308610DE00E9800683B
:10310000C0684CF20301CFF6F07108400C990843F7
:103110000E990968C860FFE70E98006808F084FD02
:1031200009900E98006808F047FD0890099800285B
:1031300040F0A880FFE70898002840F0A380FFE750
:103140000E98006846F20001C5F60201884209D1D6
:10315000FFE70E99087E91F83810800340EA41009D
:103160000C9006E00E98017E006B40EA81300C90D6
:10317000FFE70E980068C06844F2030188430C9989
:1031800008430E990968C8600E9890F84400012819
:1031900059D1FFE70E98006846F20001C5F602011A
:1031A000884201D1FFE700E0FFE70E98806A20B176
:1031B000FFE70E98C06A08B9FFE7FFE70E980068BE
:1031C00046F20001C5F6020188421BD1FFE70E98C6
:1031D000006800694FF61E01CFF6004100EA0102C7
:1031E0000E9B1968986CD3F84CE0D3F850C040EAB5
:1031F0000E0040EA0C005B6D1843104340F00100E4
:1032000008611FE00E98006800694FF61E01CFF6B6
:10321000004100EA01020E9B19689C6CD3F84CE057
:10322000D3F850C00020CFF6FF7000EB044040EA16
:103230000E0040EA0C005B6D1843104340F00100A3
:103240000861FFE706E00E980168086920F00100B8
:103250000861FFE70E980068006920F070400E9A40
:103260001168126C104308610E98006846F2000164
:10327000C5F60201884204D0FFE70E98FDF7E4FC92
:10328000FFE7FFE70E98006901280CD1FFE70E98D1
:103290000068006B20F00F000E9A1168D269013AA5
:1032A0001043086306E00E980168086B20F00F00D9
:1032B0000863FFE70E98006E40F0010020F0020066
:1032C0000E99086608E00E99086E40F01000086636
:1032D00001208DF83700FFE79DF837008DF83F009B
:1032E000FFE79DF83F0010B010BD00000000000097
:1032F00080B5BEB03D9000203C903B903A90399014
:1033000038900AA8B821FDF739F83D98006842F2D4
:103310000001C4F20201884240F0AE80FFE70020C5
:103320000B904FF400210A9102210C9110220D9272
:103330000E910F911091C021119112901390329023
:103340000AA804F0D9FA18B1FFE7FEF75DFCFFE721
:10335000FFE744F2D840C5F60200016841F02001C1
:103360000160006800F0200009900998FFE7FFE77E
:1033700044F2E040C5F60200016841F0010101603D
:10338000006800F0010008900898FFE7FFE744F2AA
:10339000E040C5F60200016841F0040101600068E8
:1033A00000F0040007900798FFE7FFE744F2E040D1
:1033B000C5F60200016841F020010160006800F0DC
:1033C000200006900698FFE708203890032001901F
:1033D0003990002004903A900020C5F6020038A9E8
:1033E000029102F061FD019A02990498302338930A
:1033F00039923A9040F60000C5F6020002F054FD02
:10340000019A029904984FF4006303933893399218
:103410003A9041F20040C5F6020002F045FD039AE1
:10342000049940F23010C2F2004005901023C4F21B
:1034300002030360092343608160C1604FF480632D
:10344000036142614FF4005282614FF48072C261A5
:103450000162416201F050FC18B1FFE7FEF7D4FBB6
:10346000FFE7FFE73D9840F23011C2F2004181656D
:103470003D988863FFE7FFE73EB080BD0000000095
:1034800080B588B0069005910492069801680120E5
:1034900042F20002C4F20202914201900CD0FFE716
:1034A000069800684DF60071CBF6FD710844B0FA3D
:1034B00080F040090190FFE70198C10746F2003013
:1034C000C5F6020000291CBF42F20030C4F202001F
:1034D00008F05AFB02900698006808F0A5FB002847
:1034E00040F0C680FFE7FFE7069890F85C000128EF
:1034F00004D1FFE702208DF81F00C2E006990120E9
:1035000081F85C00FFE7FFE7029848B1FFE7029807
:10351000052805D0FFE70298092840F09E80FFE7C4
:103520000698FDF775FD8DF80F009DF80F00002837
:1035300040F08B80FFE70698006E40F4807040F604
:1035400001618843069908660698006842F20011F6
:10355000C4F20201884206D1FFE742F20000C4F241
:103560000200009003E0069800680090FFE70098D2
:1035700006990968884203D0FFE7029830B9FFE74F
:103580000699086E20F480100866FFE70698006E22
:10359000C004002806D5FFE70699486E20F0060013
:1035A000486603E0069900204866FFE70698816DAB
:1035B00040F62960C0F60000C8630698816D40F6A9
:1035C0003170C0F6000008640698816D40F6017005
:1035D000C0F60000C864069801681C200860FFE778
:1035E0000699002081F85C00FFE7069801684868AA
:1035F00040F0100048600698006846F20001C5F6E9
:10360000020188420CD1FFE70699086891F838104A
:10361000490008F025FB0698006808F091FA05E0DB
:1036200006990868096B08F033FBFFE70698016804
:10363000806D4031059A049B02F012F88DF80F005E
:103640000698006808F054FB06E0FFE706990020A2
:1036500081F85C00FFE7FFE709E001208DF80F002B
:10366000FFE70699002081F85C00FFE7FFE703E031
:1036700002208DF80F00FFE79DF80F008DF81F0066
:10368000FFE79DF81F0008B080BD000000000000AB
:1036900080B58AB008900791069200208DF8170037
:1036A000089818B1FFE7079820B9FFE701208DF8C7
:1036B000270049E107980069012801D1FFE7FFE7EA
:1036C00007980068042801D1FFE706E007988068A2
:1036D000022801D1FFE7FFE7FFE7FFE708984079FD
:1036E000012804D1FFE702208DF827002CE108997A
:1036F00001204871FFE7FFE7089902200871079849
:10370000006804287ED1FFE702F0D2FD02900698FF
:1037100078BBFFE7FFE708980068406B48F20001BC
:10372000C2F2000108421ED0FFE702F0C1FD02997B
:10373000401A022816D3FFE708980068406B48F249
:103740000001C2F2000108420BD0FFE708990869A6
:1037500040F0080008610899032008718DF82700DF
:10376000F2E0FFE7D7E707988069089909680864DD
:1037700026E0FFE708980068406BC00FD0B1FFE774
:1037800002F096FD0299401A022812D3FFE708982A
:103790000068406BC00F58B1FFE70899086940F016
:1037A000080008610899032008718DF82700CBE014
:1037B000FFE7DFE707988069089909684864FFE731
:1037C00008980068806C069901F0100240F2FF3101
:1037D000914088430799C96991400843089909684D
:1037E000886408980068C06C069901F01002FF21F7
:1037F000914088430799096A9140084308990968EC
:10380000C864FFE70798006901281ED1FFE7089800
:103810000068806B0490069800F010011F2000FAE9
:1038200001F1049888430490079840690390039835
:10383000069901F0100100FA01F104980843049080
:103840000498089909688863FFE708980068C06BC6
:103850000490069800F01001072000FA01F1049886
:10386000884304900798C068012803D1FFE700202F
:10387000019013E00798C068022803D1FFE70120F8
:1038800001900AE00798806818B9FFE701200190CD
:1038900002E000200190FFE7FFE7FFE707990868D3
:1038A000896808430199084303900398069901F039
:1038B000100100FA01F10498084304900498089953
:1038C0000968C863069800F010014FF4804000FAC0
:1038D00001F2089801680868904308600898006839
:1038E00000680490069800F0100140F6FE7000FA9F
:1038F00001F1049888430490079840680390039866
:10390000069901F0100100FA01F1049808430490AF
:103910000498089909680860069800F01001C02012
:1039200000FA01F208980168086890430860089955
:1039300001200871FFE7089900204871FFE79DF812
:1039400017008DF82700FFE79DF827000AB080BD1B
:1039500080B582B00090009820B9FFE701208DF873
:10396000070016E00098007938B9FFE700990020B9
:103970004871009800F014F8FFE7009902200871E0
:10398000009900200861009A012111718DF807004B
:10399000FFE79DF8070002B080BD000000000000B6
:1039A00080B588B0079000200690059004900390A1
:1039B00002900798006847F20041C4F20001884273
:1039C0002BD1FFE7FFE744F2E840C5F602000168AB
:1039D00041F000510160006800F000500190019832
:1039E000FFE7FFE744F2E040C5F60200016841F05E
:1039F00001010160006800F0010000900098FFE7FD
:103A00003020029003200390002004900020C5F68F
:103A1000020002A902F048FAFFE708B080BD0000EA
:103A200086B00490039102920193002000900498C4
:103A300020B9FFE701208DF8170018E0049800680E
:103A40000090039830B9FFE70298009908440830C5
:103A5000009005E002980099084414300090FFE7B8
:103A600001980099086000208DF81700FFE79DF885
:103A7000170006B07047000083B0019000910198D4
:103A800020B9FFE701208DF80B0050E0FFE7019817
:103A90004079012804D1FFE702208DF80B0046E0B1
:103AA000019901204871FFE7FFE7019902200871A1
:103AB000009800F01001012000FA01F2019801685D
:103AC000086810430860009880B9FFE70198006813
:103AD000006800F03E00022807D1FFE70198016866
:103AE000486840F001004860FFE714E00198006872
:103AF000006800F47810009901F010020221914052
:103B0000884207D1FFE701980168486840F0020049
:103B10004860FFE7FFE7019901200871FFE701997D
:103B200000204871FFE700208DF80B00FFE79DF8AB
:103B30000B0003B07047000080B590B00F900020DC
:103B40000B9040F20400C2F20000006848F2B51188
:103B5000C1F64E31A0FB0110800A0A900F98806DCB
:103B600009900F98806D0890099800680E90089849
:103B700000680D900F98016801201022C4F2020223
:103B80009142079000F0A380FFE70F9801680120A1
:103B90002822C4F202029142079000F09880FFE7C9
:103BA0000F98016801204022C4F20202914207905E
:103BB00000F08D80FFE70F98016801205822C4F2C1
:103BC00002029142079000F08280FFE70F9801689F
:103BD00001207022C4F202029142079077D0FFE7E1
:103BE0000F98016801208822C4F2020291420790D6
:103BF0006DD0FFE70F9801680120A022C4F20202F5
:103C00009142079063D0FFE70F9801680120B82226
:103C1000C4F202029142079059D0FFE70F98016861
:103C2000012040F21042C4F20202914207904ED0AD
:103C3000FFE70F980168012040F22842C4F2020217
:103C40009142079043D0FFE70F980168012040F2AE
:103C50004042C4F202029142079038D0FFE70F9829
:103C60000168012040F25842C4F2020291420790DA
:103C70002DD0FFE70F980168012040F27042C4F296
:103C800002029142079022D0FFE70F9801680120BD
:103C900040F28842C4F202029142079017D0FFE737
:103CA0000F980168012040F2A042C4F20202914242
:103CB00007900CD0FFE70F9800684FF64831CBF61D
:103CC000FD710844B0FA80F040090790FFE70798BB
:103CD000C007002800F01385FFE70E980F99C96D03
:103CE00001F01F01C8400007002840F1B080FFE745
:103CF0000F9800681021C4F20201884200F0818010
:103D0000FFE70F9800682821C4F20201884278D0AA
:103D1000FFE70F9800684021C4F20201884270D08A
:103D2000FFE70F9800685821C4F20201884268D06A
:103D3000FFE70F9800687021C4F20201884260D04A
:103D4000FFE70F9800688821C4F20201884258D02A
:103D5000FFE70F980068A021C4F20201884250D00A
:103D6000FFE70F980068B821C4F20201884248D0EA
:103D7000FFE70F98006840F21041C4F20201884248
:103D80003FD0FFE70F98006840F22841C4F20201DB
:103D9000884236D0FFE70F98006840F24041C4F2F5
:103DA000020188422DD0FFE70F98006840F2584189
:103DB000C4F20201884224D0FFE70F98006840F265
:103DC0007041C4F2020188421BD0FFE70F980068DF
:103DD00040F28841C4F20201884212D0FFE70F98F6
:103DE000006840F2A041C4F20201884209D0FFE716
:103DF0000F98006840F2B841C4F20201884207D12E
:103E0000FFE70F980068006800F00400069006E0E5
:103E10000F980068006800F008000690FFE7069819
:103E2000A0B1FFE70F980168086820F0040008605F
:103E30000F98C06D00F01F01082088400999886024
:103E40000F99486D40F001004865FFE7FFE70E98C5
:103E50000F99C96D01F01F01C840C007002800F08C
:103E6000A980FFE70F9800681021C4F20201884280
:103E700000F08180FFE70F9800682821C4F202015A
:103E8000884278D0FFE70F9800684021C4F2020111
:103E9000884270D0FFE70F9800685821C4F20201F1
:103EA000884268D0FFE70F9800687021C4F20201D1
:103EB000884260D0FFE70F9800688821C4F20201B1
:103EC000884258D0FFE70F980068A021C4F2020191
:103ED000884250D0FFE70F980068B821C4F2020171
:103EE000884248D0FFE70F98006840F21041C4F2C2
:103EF000020188423FD0FFE70F98006840F2284156
:103F0000C4F20201884236D0FFE70F98006840F201
:103F10004041C4F2020188422DD0FFE70F980068AB
:103F200040F25841C4F20201884224D0FFE70F98C2
:103F3000006840F27041C4F2020188421BD0FFE7E2
:103F40000F98006840F28841C4F20201884212D002
:103F5000FFE70F98006840F2A041C4F202018842D6
:103F600009D0FFE70F98006840F2B841C4F202019F
:103F7000884207D1FFE70F980068406900F0800091
:103F8000059005E00F980068006800200590FFE7A5
:103F9000059870B1FFE70F98C06D00F01F01012078
:103FA0008840099988600F99486D40F00200486583
:103FB000FFE7FFE70E980F99C96D01F01F01C84098
:103FC0004007002840F1A980FFE70F980068102102
:103FD000C4F20201884200F08180FFE70F98006878
:103FE0002821C4F20201884278D0FFE70F980068C8
:103FF0004021C4F20201884270D0FFE70F980068A8
:104000005821C4F20201884268D0FFE70F98006887
:104010007021C4F20201884260D0FFE70F98006867
:104020008821C4F20201884258D0FFE70F98006847
:10403000A021C4F20201884250D0FFE70F98006827
:10404000B821C4F20201884248D0FFE70F98006807
:1040500040F21041C4F2020188423FD0FFE70F98BE
:10406000006840F22841C4F20201884236D0FFE7DE
:104070000F98006840F24041C4F2020188422DD0FE
:10408000FFE70F98006840F25841C4F202018842ED
:1040900024D0FFE70F98006840F27041C4F202019B
:1040A00088421BD0FFE70F98006840F28841C4F2B5
:1040B0000201884212D0FFE70F98006840F2A04149
:1040C000C4F20201884209D0FFE70F98006840F26D
:1040D000B841C4F20201884207D1FFE70F98006897
:1040E000006800F00200049005E00F980068006886
:1040F00000200490FFE7049870B1FFE70F98C06DAF
:1041000000F01F0104208840099988600F99486DCC
:1041100040F004004865FFE7FFE70E980F99C96D6E
:1041200001F01F01C840C006002840F1DE80FFE713
:104130000F9800681021C4F20201884200F08180CB
:10414000FFE70F9800682821C4F20201884278D066
:10415000FFE70F9800684021C4F20201884270D046
:10416000FFE70F9800685821C4F20201884268D026
:10417000FFE70F9800687021C4F20201884260D006
:10418000FFE70F9800688821C4F20201884258D0E6
:10419000FFE70F980068A021C4F20201884250D0C6
:1041A000FFE70F980068B821C4F20201884248D0A6
:1041B000FFE70F98006840F21041C4F20201884204
:1041C0003FD0FFE70F98006840F22841C4F2020197
:1041D000884236D0FFE70F98006840F24041C4F2B1
:1041E000020188422DD0FFE70F98006840F2584145
:1041F000C4F20201884224D0FFE70F98006840F221
:104200007041C4F2020188421BD0FFE70F9800689A
:1042100040F28841C4F20201884212D0FFE70F98B1
:10422000006840F2A041C4F20201884209D0FFE7D1
:104230000F98006840F2B841C4F20201884207D1E9
:10424000FFE70F980068006800F00800039006E0A0
:104250000F980068006800F004000390FFE70398DF
:10426000002841D0FFE70F98C06D00F01F0110201B
:104270008840099988600F9800680068400300280A
:104280001AD5FFE70F98006800680003002809D4DA
:10429000FFE70F98006C20B1FFE70F98016C88478B
:1042A000FFE708E00F98806C20B1FFE70F98816C62
:1042B0008847FFE7FFE716E00F9800680068C00531
:1042C000002807D4FFE70F980168086820F008006D
:1042D0000860FFE70F98006C20B1FFE70F98016CB2
:1042E0008847FFE7FFE7FFE7FFE70E980F99C96DE3
:1042F00001F01F01C8408006002840F12681FFE739
:104300000F9800681021C4F20201884200F08180F9
:10431000FFE70F9800682821C4F20201884278D094
:10432000FFE70F9800684021C4F20201884270D074
:10433000FFE70F9800685821C4F20201884268D054
:10434000FFE70F9800687021C4F20201884260D034
:10435000FFE70F9800688821C4F20201884258D014
:10436000FFE70F980068A021C4F20201884250D0F4
:10437000FFE70F980068B821C4F20201884248D0D4
:10438000FFE70F98006840F21041C4F20201884232
:104390003FD0FFE70F98006840F22841C4F20201C5
:1043A000884236D0FFE70F98006840F24041C4F2DF
:1043B000020188422DD0FFE70F98006840F2584173
:1043C000C4F20201884224D0FFE70F98006840F24F
:1043D0007041C4F2020188421BD0FFE70F980068C9
:1043E00040F28841C4F20201884212D0FFE70F98E0
:1043F000006840F2A041C4F20201884209D0FFE700
:104400000F98006840F2B841C4F20201884207D117
:10441000FFE70F980068006800F01000029006E0C7
:104420000F980068006800F002000290FFE7029811
:10443000002800F08980FFE70F98C06D00F01F0191
:1044400020208840099988600F9890F8350004284A
:1044500037D1FFE70F980168086820F01600086060
:104460000F980168486920F0800048610F98006C3F
:1044700020B9FFE70F98806C38B1FFE70F9801680B
:10448000086820F008000860FFE70F98C06D00F092
:104490001F013F208840099988600F99012081F809
:1044A0003500FFE70F99002081F83400FFE70F98EF
:1044B000006D20B1FFE70F98016D8847FFE700F01E
:1044C00019BC0F9800680068400300281AD5FFE760
:1044D0000F98006800680003002809D4FFE70F98D0
:1044E000406C20B1FFE70F98416C8847FFE708E078
:1044F0000F98C06B20B1FFE70F98C16B8847FFE7AB
:10450000FFE720E00F9800680068C005002811D47C
:10451000FFE70F980168086820F0100008600F9905
:10452000012081F83500FFE70F99002081F8340061
:10453000FFE7FFE70F98C06B20B1FFE70F98C16B53
:104540008847FFE7FFE7FFE7FFE70F98406D002888
:1045500000F0D480FFE70F98406DC007002800F0FE
:10456000C480FFE70F99042081F835000F98006898
:104570001021C4F20201884200F08180FFE70F9809
:1045800000682821C4F20201884278D0FFE70F9822
:1045900000684021C4F20201884270D0FFE70F9802
:1045A00000685821C4F20201884268D0FFE70F98E2
:1045B00000687021C4F20201884260D0FFE70F98C2
:1045C00000688821C4F20201884258D0FFE70F98A2
:1045D0000068A021C4F20201884250D0FFE70F9882
:1045E0000068B821C4F20201884248D0FFE70F9862
:1045F000006840F21041C4F2020188423FD0FFE758
:104600000F98006840F22841C4F20201884236D077
:10461000FFE70F98006840F24041C4F2020188426F
:104620002DD0FFE70F98006840F25841C4F2020114
:10463000884224D0FFE70F98006840F27041C4F22E
:10464000020188421BD0FFE70F98006840F28841C2
:10465000C4F20201884212D0FFE70F98006840F2CE
:10466000A041C4F20201884209D0FFE70F98006818
:1046700040F2B841C4F20201884207D1FFE70F9827
:104680000168086820F00100086006E00F980168E2
:10469000086820F001000860FFE7FFE70B98013091
:1046A0000B900A99884201D9FFE707E0FFE70F98CE
:1046B00000680068C0070028F0D1FFE70F98006885
:1046C0000068C00728B1FFE70F99032081F8350083
:1046D00004E00F99012081F83500FFE7FFE70F990B
:1046E000002081F83400FFE7FFE70F98C06C20B18D
:1046F000FFE70F98C16C8847FFE7FFE7FAE20F98E2
:104700000168012045F20842C5F60202914201907B
:104710004ED0FFE70F980168012045F21C42C5F614
:1047200002029142019043D0FFE70F9801680120F7
:1047300045F23042C5F602029142019038D0FFE7BF
:104740000F980168012045F24442C5F602029142E9
:1047500001902DD0FFE70F980168012045F25842E3
:10476000C5F602029142019022D0FFE70F9801683E
:10477000012045F26C42C5F602029142019017D029
:10478000FFE70F980168012045F28042C5F602025A
:10479000914201900CD0FFE70F9800684AF66C3107
:1047A000CAF2FD710844B0FA80F040090190FFE7B9
:1047B0000198C007002800F09B82FFE70F9800686F
:1047C00000680C900D980F99C96D01F01F01C84049
:1047D0004007002840F1D780FFE79DF830004007F0
:1047E000002840F1D080FFE70F98C06D00F01F0156
:1047F00004208840089948609DF831000006002890
:1048000018D5FFE79DF83200C00748B9FFE70F98B9
:10481000806C20B1FFE70F98816C8847FFE708E0C4
:104820000F98006C20B1FFE70F98016C8847FFE7F5
:10483000FFE7A7E09DF830008006002800F199808E
:10484000FFE70F9800681021C4F20201884200F0CF
:104850008180FFE70F9800682821C4F20201884296
:1048600078D0FFE70F9800684021C4F20201884227
:1048700070D0FFE70F9800685821C4F20201884207
:1048800068D0FFE70F9800687021C4F202018842E7
:1048900060D0FFE70F9800688821C4F202018842C7
:1048A00058D0FFE70F980068A021C4F202018842A7
:1048B00050D0FFE70F980068B821C4F20201884287
:1048C00048D0FFE70F98006840F21041C4F202019F
:1048D00088423FD0FFE70F98006840F22841C4F2B9
:1048E0000201884236D0FFE70F98006840F240414D
:1048F000C4F2020188422DD0FFE70F98006840F211
:104900005841C4F20201884224D0FFE70F980068A2
:1049100040F27041C4F2020188421BD0FFE70F98B9
:10492000006840F28841C4F20201884212D0FFE7D9
:104930000F98006840F2A041C4F20201884209D0F9
:10494000FFE70F98006840F2B841C4F202018842C4
:1049500007D1FFE70F980168086820F00800086099
:1049600006E00F980168086820F004000860FFE77F
:10497000FFE70F98006C20B1FFE70F98016C8847A4
:10498000FFE7FFE7B3E10D980F99C96D01F01F0133
:10499000C8408007002840F1E180FFE79DF8300023
:1049A0008007002840F1DA80FFE70F98C06D00F023
:1049B0001F0102208840089948609DF831000006D8
:1049C000002818D5FFE79DF83200C00748B9FFE777
:1049D0000F98406C20B1FFE70F98416C8847FFE7C4
:1049E00008E00F98C06B20B1FFE70F98C16B8847B4
:1049F000FFE7FFE7B1E09DF830008006002800F1F6
:104A0000A380FFE70F9800681021C4F202018842DA
:104A100000F08180FFE70F9800682821C4F20201AE
:104A2000884278D0FFE70F9800684021C4F2020165
:104A3000884270D0FFE70F9800685821C4F2020145
:104A4000884268D0FFE70F9800687021C4F2020125
:104A5000884260D0FFE70F9800688821C4F2020105
:104A6000884258D0FFE70F980068A021C4F20201E5
:104A7000884250D0FFE70F980068B821C4F20201C5
:104A8000884248D0FFE70F98006840F21041C4F216
:104A9000020188423FD0FFE70F98006840F22841AA
:104AA000C4F20201884236D0FFE70F98006840F256
:104AB0004041C4F2020188422DD0FFE70F98006800
:104AC00040F25841C4F20201884224D0FFE70F9817
:104AD000006840F27041C4F2020188421BD0FFE737
:104AE0000F98006840F28841C4F20201884212D057
:104AF000FFE70F98006840F2A041C4F2020188422B
:104B000009D0FFE70F98006840F2B841C4F20201F3
:104B1000884207D1FFE70F980168086820F0140069
:104B2000086006E00F980168086820F00A00086035
:104B3000FFE70F99012081F83500FFE70F9900206A
:104B400081F83400FFE7FFE70F98C06B20B1FFE763
:104B50000F98C16B8847FFE7FFE7C7E00D980F99F3
:104B6000C96D01F01F01C8400007002840F1BC805A
:104B7000FFE79DF830000007002840F1B580FFE70F
:104B80000F9800681021C4F20201884200F0818071
:104B9000FFE70F9800682821C4F20201884278D00C
:104BA000FFE70F9800684021C4F20201884270D0EC
:104BB000FFE70F9800685821C4F20201884268D0CC
:104BC000FFE70F9800687021C4F20201884260D0AC
:104BD000FFE70F9800688821C4F20201884258D08C
:104BE000FFE70F980068A021C4F20201884250D06C
:104BF000FFE70F980068B821C4F20201884248D04C
:104C0000FFE70F98006840F21041C4F202018842A9
:104C10003FD0FFE70F98006840F22841C4F202013C
:104C2000884236D0FFE70F98006840F24041C4F256
:104C3000020188422DD0FFE70F98006840F25841EA
:104C4000C4F20201884224D0FFE70F98006840F2C6
:104C50007041C4F2020188421BD0FFE70F98006840
:104C600040F28841C4F20201884212D0FFE70F9857
:104C7000006840F2A041C4F20201884209D0FFE777
:104C80000F98006840F2B841C4F20201884207D18F
:104C9000FFE70F980168086820F01C00086006E034
:104CA0000F980168086820F00E000860FFE70F9871
:104CB000C06D00F01F01012000FA01F1089A516057
:104CC0000F9948650F9981F83500FFE70F9900208B
:104CD00081F83400FFE70F98C06C20B1FFE70F9810
:104CE000C16C8847FFE700E0FFE7FFE7FFE700E070
:104CF000FFE7FFE710B080BD80B58EB00C9001F0EB
:104D0000D7FA0A900C9828B9FFE701208DF83700F0
:104D100000F09FBC0C98016801201022C4F202022E
:104D20009142079000F0A380FFE70C9801680120F2
:104D30002822C4F202029142079000F09880FFE717
:104D40000C98016801204022C4F2020291420790AF
:104D500000F08D80FFE70C98016801205822C4F212
:104D600002029142079000F08280FFE70C980168F0
:104D700001207022C4F202029142079077D0FFE72F
:104D80000C98016801208822C4F202029142079027
:104D90006DD0FFE70C9801680120A022C4F2020246
:104DA0009142079063D0FFE70C9801680120B82278
:104DB000C4F202029142079059D0FFE70C980168B3
:104DC000012040F21042C4F20202914207904ED0FC
:104DD000FFE70C980168012040F22842C4F2020269
:104DE0009142079043D0FFE70C980168012040F200
:104DF0004042C4F202029142079038D0FFE70C987B
:104E00000168012040F25842C4F202029142079028
:104E10002DD0FFE70C980168012040F27042C4F2E7
:104E200002029142079022D0FFE70C98016801200E
:104E300040F28842C4F202029142079017D0FFE785
:104E40000C980168012040F2A042C4F20202914293
:104E500007900CD0FFE70C9800684FF64831CBF66E
:104E6000FD710844B0FA80F040090790FFE7079809
:104E7000C007002800F07881FFE70C98406A08B16D
:104E8000FFE7FFE70C99022081F83500FFE70C9956
:104E9000002081F83400FFE70C9800681021C4F26C
:104EA0000201884200F08180FFE70C980068282109
:104EB000C4F20201884278D0FFE70C9800684021D4
:104EC000C4F20201884270D0FFE70C9800685821B4
:104ED000C4F20201884268D0FFE70C980068702194
:104EE000C4F20201884260D0FFE70C980068882174
:104EF000C4F20201884258D0FFE70C980068A02154
:104F0000C4F20201884250D0FFE70C980068B82133
:104F1000C4F20201884248D0FFE70C98006840F2D2
:104F20001041C4F2020188423FD0FFE70C980068AC
:104F300040F22841C4F20201884236D0FFE70C98C3
:104F4000006840F24041C4F2020188422DD0FFE7E0
:104F50000C98006840F25841C4F20201884224D003
:104F6000FFE70C98006840F27041C4F202018842E9
:104F70001BD0FFE70C98006840F28841C4F20201A0
:104F8000884212D0FFE70C98006840F2A041C4F2BA
:104F90000201884209D0FFE70C98006840F2B8414E
:104FA000C4F20201884207D1FFE70C980168086843
:104FB00020F00100086006E00C980168086820F005
:104FC00001000860FFE7FFE70C9800680068C00771
:104FD00098B1FFE701F06CF90A99401A06280BD343
:104FE000FFE70C99202048650C99032081F83500D3
:104FF00001208DF837002CE3E6E70C980068006884
:105000000B900B9848F23F01CFF6106108400B90CF
:105010000C998868D1F80CC00B694A6940EA0C0009
:10502000184310438A691043CA691043096A01434F
:105030000B9808430B900C98406A042808D1FFE7AE
:105040000C99C86A096B01430B9808430B90FFE762
:105050000C984068292807D3FFE70C984168012085
:105060002F29069036D3FFE70C9840683F2807D3D6
:10507000FFE70C9841680120432906902AD3FFE7F7
:105080000C984068472807D3FFE70C984168012037
:10509000492906901ED3FFE70C9840684F2807D394
:1050A000FFE70C98416801205329069012D3FFE7CF
:1050B0000C98416800207429059008D3FFE70C98EC
:1050C00041680020782938BF01200590FFE7059846
:1050D0000690FFE70698C00728B1FFE70B9840F459
:1050E00080100B90FFE70B980C99096808600C98EA
:1050F000006840690B900B9820F007000B900C980B
:10510000416A0B9808430B900C98406A04281AD106
:10511000FFE70C98816A0B9808430B900C98C06AC3
:1051200080B1FFE70C98FCF75FFA50B1FFE70C99EC
:10513000402048650C99012081F835008DF8370032
:1051400087E2FFE7FFE70B980C99096848610C9824
:10515000FCF70EF809900C98C06D00F01F013F207D
:1051600088400999886027E10C980168012045F280
:105170000842C5F60202914204904ED0FFE70C9817
:105180000168012045F21C42C5F6020291420490DA
:1051900043D0FFE70C980168012045F23042C5F684
:1051A00002029142049038D0FFE70C980168012078
:1051B00045F24442C5F60202914204902DD0FFE729
:1051C0000C980168012045F25842C5F6020291424E
:1051D000049022D0FFE70C980168012045F26C4250
:1051E000C5F602029142049017D0FFE70C980168BF
:1051F000012045F28042C5F60202914204900CD093
:10520000FFE70C9800684AF66C31CAF2FD71084459
:10521000B0FA80F040090490FFE70498C007002826
:1052200000F0BE80FFE70C980168012045F20842BB
:10523000C5F60202914203904ED0FFE70C98016838
:10524000012045F21C42C5F602029142039043D070
:10525000FFE70C980168012045F23042C5F60202D2
:105260009142039038D0FFE70C980168012045F285
:105270004442C5F60202914203902DD0FFE70C98FC
:105280000168012045F25842C5F60202914203909E
:1052900022D0FFE70C980168012045F26C42C5F668
:1052A00002029142039017D0FFE70C980168012099
:1052B00045F28042C5F60202914203900CD0FFE70E
:1052C0000C9800684AF66C31CAF2FD710844B0FAD5
:1052D00080F040090390FFE70398C00708B1FFE79B
:1052E000FFE70C99022081F83500FFE70C990020B8
:1052F00081F83400FFE70C98006800680B900B9869
:105300006FF310100B900C988068402803D1FFE7D2
:105310001020029008E00C9880688038B0FA80F085
:10532000400980030290FFE702980C99D1F80CE045
:10533000D1F810C04B698A6940EADE0040EADC001F
:1053400040EAD30040EAD200CA6940EAD200096AC2
:1053500040EA11110B9808430B900B980C990968BF
:1053600008600C9908684AF6F832CAF2FD721044D7
:105370004CF6CD42CCF6CC42A0FB02026FF003000B
:1053800000EA9200C8650C98FBF7F2FE08900C98B2
:10539000C06D00F01F0101208840089948600AE0B4
:1053A0000C99402048650C99032081F835000120B4
:1053B0008DF837004DE1FFE70C98016801201022BD
:1053C000C4F202029142019000F00381FFE70C98C1
:1053D000016801202822C4F202029142019000F0EB
:1053E000F880FFE70C98016801204022C4F2020215
:1053F0009142019000F0ED80FFE70C9801680120D8
:105400005822C4F202029142019000F0E280FFE7CC
:105410000C98016801207022C4F2020291420190AE
:1054200000F0D780FFE70C98016801208822C4F2C1
:1054300002029142019000F0CC80FFE70C980168D5
:105440000120A022C4F202029142019000F0C1802A
:10545000FFE70C9801680120B822C4F202029142D1
:10546000019000F0B680FFE70C980168012040F23F
:105470001042C4F202029142019000F0AA80FFE7BC
:105480000C980168012040F22842C4F202029142C5
:10549000019000F09E80FFE70C980168012040F227
:1054A0004042C4F202029142019000F09280FFE774
:1054B0000C980168012040F25842C4F20202914265
:1054C000019000F08680FFE70C980168012040F20F
:1054D0007042C4F20202914201907AD0FFE70C9828
:1054E0000168012040F28842C4F202029142019018
:1054F0006FD0FFE70C980168012040F2A042C4F28F
:1055000002029142019064D0FFE70C9801680120EB
:1055100040F2B842C4F202029142019059D0FFE732
:105520000C980168012045F20842C5F6020291423A
:1055300001904ED0FFE70C980168012045F21C4213
:10554000C5F602029142019043D0FFE70C98016832
:10555000012045F23042C5F602029142019038D056
:10556000FFE70C980168012045F24442C5F60202AB
:10557000914201902DD0FFE70C980168012045F27F
:105580005842C5F602029142019022D0FFE70C98E2
:105590000168012045F26C42C5F602029142019079
:1055A00017D0FFE70C980168012045F28042C5F64C
:1055B0000202914201900CD0FFE70C9800684AF675
:1055C0006C31CAF2FD710844B0FA80F040090190D4
:1055D000FFE70198C00790B3FFE70C98FBF7B0FE18
:1055E0000C988068802804D1FFE70C99002048605F
:1055F000FFE70C990879096E08600C98416E806E7F
:1056000048600C98406888B1FFE70C98406808280B
:105610000CD8FFE70C98FBF74FFF0C98C16E0020E9
:1056200008600C98016F406F486007E00C990020FB
:10563000C8660C9908670C994867FFE7FFE70C9963
:10564000002048650C9A012182F835108DF837004A
:10565000FFE79DF837000EB080BD0000000000009D
:1056600080B588B0069005910492039300208DF8D0
:105670000B00069820B9FFE701208DF81F006CE3AE
:10568000FFE7069890F83400012804D1FFE70220D4
:105690008DF81F0061E30699012081F83400FFE7CF
:1056A000FFE7069890F83500012840F04383FFE7B4
:1056B0000699022081F83500069900204865069871
:1056C00000681021C4F20201884200F08180FFE7E7
:1056D000069800682821C4F20201884278D0FFE7CA
:1056E000069800684021C4F20201884270D0FFE7AA
:1056F000069800685821C4F20201884268D0FFE78A
:10570000069800687021C4F20201884260D0FFE769
:10571000069800688821C4F20201884258D0FFE749
:1057200006980068A021C4F20201884250D0FFE729
:1057300006980068B821C4F20201884248D0FFE709
:105740000698006840F21041C4F2020188423FD03E
:10575000FFE70698006840F22841C4F2020188423F
:1057600036D0FFE70698006840F24041C4F20201DB
:1057700088422DD0FFE70698006840F25841C4F2F5
:105780000201884224D0FFE70698006840F2704189
:10579000C4F2020188421BD0FFE70698006840F27D
:1057A0008841C4F20201884212D0FFE706980068DF
:1057B00040F2A041C4F20201884209D0FFE70698F6
:1057C000006840F2B841C4F20201884207D1FFE705
:1057D00006980168086820F00100086006E0069855
:1057E0000168086820F001000860FFE70698059945
:1057F000049A039BFBF770FF0698016801201022B2
:10580000C4F202029142019000F0A380FFE70698E3
:10581000016801202822C4F202029142019000F0A6
:105820009880FFE70698016801204022C4F2020236
:105830009142019000F08D80FFE7069801680120F9
:105840005822C4F202029142019000F08280FFE7E8
:105850000698016801207022C4F202029142019070
:1058600077D0FFE70698016801208822C4F202027F
:10587000914201906DD0FFE7069801680120A022B7
:10588000C4F202029142019063D0FFE706980168DA
:105890000120B822C4F202029142019059D0FFE7E0
:1058A00006980168012040F21042C4F202029142BF
:1058B00001904ED0FFE706980168012040F228428F
:1058C000C4F202029142019043D0FFE706980168BA
:1058D000012040F24042C4F202029142019038D0CD
:1058E000FFE706980168012040F25842C4F2020224
:1058F000914201902DD0FFE706980168012040F207
:105900007042C4F202029142019022D0FFE7069851
:105910000168012040F28842C4F2020291420190E3
:1059200017D0FFE706980168012040F2A042C4F2B8
:105930000202914201900CD0FFE7069800684FF6F2
:105940004831CBF6FD710844B0FA80F0400901906F
:10595000FFE70198C007A8B1FFE706980068006854
:105960000B2161F344000699096808600698006CF1
:1059700038B1FFE706980168086840F00800086041
:10598000FFE714E0069800680068052161F3430012
:105990000699096808600698006C38B1FFE7069818
:1059A0000168086840F004000860FFE7FFE7069818
:1059B000016801201022C4F202029142009000F01E
:1059C0000381FFE70698016801202822C4F2020241
:1059D0009142009000F0F880FFE7069801680120EE
:1059E0004022C4F202029142009000F0ED80FFE7F5
:1059F0000698016801205822C4F2020291420090E8
:105A000000F0E280FFE70698016801207022C4F2EE
:105A100002029142009000F0D780FFE706980168EB
:105A200001208822C4F202029142009000F0CC8052
:105A3000FFE7069801680120A022C4F20202914209
:105A4000009000F0C180FFE7069801680120B822AD
:105A5000C4F202029142009000F0B680FFE706987F
:105A60000168012040F21042C4F20202914200900B
:105A700000F0AA80FFE706980168012040F2284262
:105A8000C4F202029142009000F09E80FFE7069867
:105A90000168012040F24042C4F2020291420090AB
:105AA00000F09280FFE706980168012040F258421A
:105AB000C4F202029142009000F08680FFE706984F
:105AC0000168012040F27042C4F20202914200904B
:105AD0007AD0FFE706980168012040F28842C4F2BC
